{
	"contracts/NFTSwap.sol": {
		"NFTSwap": {
			"abi": [
				{
					"anonymous": false,
					"inputs": [
						{
							"indexed": true,
							"internalType": "address",
							"name": "seller",
							"type": "address"
						},
						{
							"indexed": true,
							"internalType": "address",
							"name": "nftAddr",
							"type": "address"
						},
						{
							"indexed": true,
							"internalType": "uint256",
							"name": "tokenId",
							"type": "uint256"
						},
						{
							"indexed": false,
							"internalType": "uint256",
							"name": "price",
							"type": "uint256"
						}
					],
					"name": "List",
					"type": "event"
				},
				{
					"anonymous": false,
					"inputs": [
						{
							"indexed": true,
							"internalType": "address",
							"name": "buyer",
							"type": "address"
						},
						{
							"indexed": true,
							"internalType": "address",
							"name": "nftAddr",
							"type": "address"
						},
						{
							"indexed": true,
							"internalType": "uint256",
							"name": "tokenId",
							"type": "uint256"
						},
						{
							"indexed": false,
							"internalType": "uint256",
							"name": "price",
							"type": "uint256"
						}
					],
					"name": "Purchase",
					"type": "event"
				},
				{
					"anonymous": false,
					"inputs": [
						{
							"indexed": true,
							"internalType": "address",
							"name": "seller",
							"type": "address"
						},
						{
							"indexed": true,
							"internalType": "address",
							"name": "nftAddr",
							"type": "address"
						},
						{
							"indexed": true,
							"internalType": "uint256",
							"name": "tokenId",
							"type": "uint256"
						}
					],
					"name": "Revoke",
					"type": "event"
				},
				{
					"anonymous": false,
					"inputs": [
						{
							"indexed": true,
							"internalType": "address",
							"name": "seller",
							"type": "address"
						},
						{
							"indexed": true,
							"internalType": "address",
							"name": "nftAddr",
							"type": "address"
						},
						{
							"indexed": true,
							"internalType": "uint256",
							"name": "tokenId",
							"type": "uint256"
						},
						{
							"indexed": false,
							"internalType": "uint256",
							"name": "newPrice",
							"type": "uint256"
						}
					],
					"name": "Update",
					"type": "event"
				},
				{
					"inputs": [],
					"name": "fallback",
					"outputs": [],
					"stateMutability": "payable",
					"type": "function"
				},
				{
					"inputs": [
						{
							"internalType": "address",
							"name": "_nftAddr",
							"type": "address"
						},
						{
							"internalType": "uint256",
							"name": "_tokenId",
							"type": "uint256"
						},
						{
							"internalType": "uint256",
							"name": "_price",
							"type": "uint256"
						}
					],
					"name": "list",
					"outputs": [],
					"stateMutability": "nonpayable",
					"type": "function"
				},
				{
					"inputs": [
						{
							"internalType": "address",
							"name": "",
							"type": "address"
						},
						{
							"internalType": "uint256",
							"name": "",
							"type": "uint256"
						}
					],
					"name": "nftList",
					"outputs": [
						{
							"internalType": "address",
							"name": "owner",
							"type": "address"
						},
						{
							"internalType": "uint256",
							"name": "price",
							"type": "uint256"
						}
					],
					"stateMutability": "view",
					"type": "function"
				},
				{
					"inputs": [
						{
							"internalType": "address",
							"name": "operator",
							"type": "address"
						},
						{
							"internalType": "address",
							"name": "from",
							"type": "address"
						},
						{
							"internalType": "uint256",
							"name": "tokenId",
							"type": "uint256"
						},
						{
							"internalType": "bytes",
							"name": "data",
							"type": "bytes"
						}
					],
					"name": "onERC721Received",
					"outputs": [
						{
							"internalType": "bytes4",
							"name": "",
							"type": "bytes4"
						}
					],
					"stateMutability": "nonpayable",
					"type": "function"
				},
				{
					"inputs": [
						{
							"internalType": "address",
							"name": "_nftAddr",
							"type": "address"
						},
						{
							"internalType": "uint256",
							"name": "_tokenId",
							"type": "uint256"
						},
						{
							"internalType": "uint256",
							"name": "_price",
							"type": "uint256"
						}
					],
					"name": "purchase",
					"outputs": [],
					"stateMutability": "payable",
					"type": "function"
				},
				{
					"inputs": [
						{
							"internalType": "address",
							"name": "_nftAddr",
							"type": "address"
						},
						{
							"internalType": "uint256",
							"name": "_tokenId",
							"type": "uint256"
						}
					],
					"name": "revoke",
					"outputs": [],
					"stateMutability": "nonpayable",
					"type": "function"
				},
				{
					"inputs": [
						{
							"internalType": "address",
							"name": "_nftAddr",
							"type": "address"
						},
						{
							"internalType": "uint256",
							"name": "_tokenId",
							"type": "uint256"
						},
						{
							"internalType": "uint256",
							"name": "_newPrice",
							"type": "uint256"
						}
					],
					"name": "update",
					"outputs": [],
					"stateMutability": "nonpayable",
					"type": "function"
				}
			],
			"devdoc": {
				"kind": "dev",
				"methods": {
					"onERC721Received(address,address,uint256,bytes)": {
						"details": "Whenever an {IERC721} `tokenId` token is transferred to this contract via {IERC721-safeTransferFrom} by `operator` from `from`, this function is called. It must return its Solidity selector to confirm the token transfer. If any other value is returned or the interface is not implemented by the recipient, the transfer will be reverted. The selector can be obtained in Solidity with `IERC721Receiver.onERC721Received.selector`."
					}
				},
				"version": 1
			},
			"evm": {
				"assembly": "    /* \"contracts/NFTSwap.sol\":858:4323  contract NFTSwap is IERC721Receiver {... */\n  mstore(0x40, 0x80)\n  callvalue\n  dup1\n  iszero\n  tag_1\n  jumpi\n  0x00\n  dup1\n  revert\ntag_1:\n  pop\n  dataSize(sub_0)\n  dup1\n  dataOffset(sub_0)\n  0x00\n  codecopy\n  0x00\n  return\nstop\n\nsub_0: assembly {\n        /* \"contracts/NFTSwap.sol\":858:4323  contract NFTSwap is IERC721Receiver {... */\n      mstore(0x40, 0x80)\n      jumpi(tag_1, lt(calldatasize, 0x04))\n      shr(0xe0, calldataload(0x00))\n      dup1\n      0xba5f4fb2\n      gt\n      tag_9\n      jumpi\n      dup1\n      0xba5f4fb2\n      eq\n      tag_5\n      jumpi\n      dup1\n      0xd09b6d43\n      eq\n      tag_6\n      jumpi\n      dup1\n      0xdda342bb\n      eq\n      tag_7\n      jumpi\n      dup1\n      0xeac449d9\n      eq\n      tag_8\n      jumpi\n      jump(tag_1)\n    tag_9:\n      dup1\n      0x150b7a02\n      eq\n      tag_2\n      jumpi\n      dup1\n      0x552079dc\n      eq\n      tag_3\n      jumpi\n      dup1\n      0x98968f15\n      eq\n      tag_4\n      jumpi\n    tag_1:\n      0x00\n      dup1\n      revert\n        /* \"contracts/NFTSwap.sol\":1687:1918  function onERC721Received (... */\n    tag_2:\n      callvalue\n      dup1\n      iszero\n      tag_10\n      jumpi\n      0x00\n      dup1\n      revert\n    tag_10:\n      pop\n      tag_11\n      0x04\n      dup1\n      calldatasize\n      sub\n      dup2\n      add\n      swap1\n      tag_12\n      swap2\n      swap1\n      tag_13\n      jump\t// in\n    tag_12:\n      tag_14\n      jump\t// in\n    tag_11:\n      mload(0x40)\n      tag_15\n      swap2\n      swap1\n      tag_16\n      jump\t// in\n    tag_15:\n      mload(0x40)\n      dup1\n      swap2\n      sub\n      swap1\n      return\n        /* \"contracts/NFTSwap.sol\":1925:1963  function fallback() external payable{} */\n    tag_3:\n      tag_17\n      tag_18\n      jump\t// in\n    tag_17:\n      stop\n        /* \"contracts/NFTSwap.sol\":3064:3832  function purchase(address _nftAddr, uint256 _tokenId, uint256 _price) payable public{... */\n    tag_4:\n      tag_19\n      0x04\n      dup1\n      calldatasize\n      sub\n      dup2\n      add\n      swap1\n      tag_20\n      swap2\n      swap1\n      tag_21\n      jump\t// in\n    tag_20:\n      tag_22\n      jump\t// in\n    tag_19:\n      stop\n        /* \"contracts/NFTSwap.sol\":1558:1618  mapping(address => mapping(uint256 => Order)) public nftList */\n    tag_5:\n      callvalue\n      dup1\n      iszero\n      tag_23\n      jumpi\n      0x00\n      dup1\n      revert\n    tag_23:\n      pop\n      tag_24\n      0x04\n      dup1\n      calldatasize\n      sub\n      dup2\n      add\n      swap1\n      tag_25\n      swap2\n      swap1\n      tag_26\n      jump\t// in\n    tag_25:\n      tag_27\n      jump\t// in\n    tag_24:\n      mload(0x40)\n      tag_28\n      swap3\n      swap2\n      swap1\n      tag_29\n      jump\t// in\n    tag_28:\n      mload(0x40)\n      dup1\n      swap2\n      sub\n      swap1\n      return\n        /* \"contracts/NFTSwap.sol\":3840:4321  function update(address _nftAddr, uint256 _tokenId, uint256 _newPrice) public {... */\n    tag_6:\n      callvalue\n      dup1\n      iszero\n      tag_30\n      jumpi\n      0x00\n      dup1\n      revert\n    tag_30:\n      pop\n      tag_31\n      0x04\n      dup1\n      calldatasize\n      sub\n      dup2\n      add\n      swap1\n      tag_32\n      swap2\n      swap1\n      tag_21\n      jump\t// in\n    tag_32:\n      tag_33\n      jump\t// in\n    tag_31:\n      stop\n        /* \"contracts/NFTSwap.sol\":1969:2579  function list(address _nftAddr, uint256 _tokenId, uint256 _price) public{... */\n    tag_7:\n      callvalue\n      dup1\n      iszero\n      tag_34\n      jumpi\n      0x00\n      dup1\n      revert\n    tag_34:\n      pop\n      tag_35\n      0x04\n      dup1\n      calldatasize\n      sub\n      dup2\n      add\n      swap1\n      tag_36\n      swap2\n      swap1\n      tag_21\n      jump\t// in\n    tag_36:\n      tag_37\n      jump\t// in\n    tag_35:\n      stop\n        /* \"contracts/NFTSwap.sol\":2586:3057  function revoke(address _nftAddr, uint256 _tokenId ) public {... */\n    tag_8:\n      callvalue\n      dup1\n      iszero\n      tag_38\n      jumpi\n      0x00\n      dup1\n      revert\n    tag_38:\n      pop\n      tag_39\n      0x04\n      dup1\n      calldatasize\n      sub\n      dup2\n      add\n      swap1\n      tag_40\n      swap2\n      swap1\n      tag_26\n      jump\t// in\n    tag_40:\n      tag_41\n      jump\t// in\n    tag_39:\n      stop\n        /* \"contracts/NFTSwap.sol\":1687:1918  function onERC721Received (... */\n    tag_14:\n        /* \"contracts/NFTSwap.sol\":1846:1852  bytes4 */\n      0x00\n        /* \"contracts/NFTSwap.sol\":1870:1911  IERC721Receiver.onERC721Received.selector */\n      shl(0xe0, 0x150b7a02)\n        /* \"contracts/NFTSwap.sol\":1863:1911  return IERC721Receiver.onERC721Received.selector */\n      swap1\n      pop\n        /* \"contracts/NFTSwap.sol\":1687:1918  function onERC721Received (... */\n      swap6\n      swap5\n      pop\n      pop\n      pop\n      pop\n      pop\n      jump\t// out\n        /* \"contracts/NFTSwap.sol\":1925:1963  function fallback() external payable{} */\n    tag_18:\n      jump\t// out\n        /* \"contracts/NFTSwap.sol\":3064:3832  function purchase(address _nftAddr, uint256 _tokenId, uint256 _price) payable public{... */\n    tag_22:\n        /* \"contracts/NFTSwap.sol\":3158:3178  Order storage _order */\n      0x00\n        /* \"contracts/NFTSwap.sol\":3181:3188  nftList */\n      dup1\n        /* \"contracts/NFTSwap.sol\":3181:3198  nftList[_nftAddr] */\n      0x00\n        /* \"contracts/NFTSwap.sol\":3189:3197  _nftAddr */\n      dup6\n        /* \"contracts/NFTSwap.sol\":3181:3198  nftList[_nftAddr] */\n      0xffffffffffffffffffffffffffffffffffffffff\n      and\n      0xffffffffffffffffffffffffffffffffffffffff\n      and\n      dup2\n      mstore\n      0x20\n      add\n      swap1\n      dup2\n      mstore\n      0x20\n      add\n      0x00\n      keccak256\n        /* \"contracts/NFTSwap.sol\":3181:3208  nftList[_nftAddr][_tokenId] */\n      0x00\n        /* \"contracts/NFTSwap.sol\":3199:3207  _tokenId */\n      dup5\n        /* \"contracts/NFTSwap.sol\":3181:3208  nftList[_nftAddr][_tokenId] */\n      dup2\n      mstore\n      0x20\n      add\n      swap1\n      dup2\n      mstore\n      0x20\n      add\n      0x00\n      keccak256\n        /* \"contracts/NFTSwap.sol\":3158:3208  Order storage _order = nftList[_nftAddr][_tokenId] */\n      swap1\n      pop\n        /* \"contracts/NFTSwap.sol\":3235:3236  0 */\n      0x00\n        /* \"contracts/NFTSwap.sol\":3226:3232  _price */\n      dup3\n        /* \"contracts/NFTSwap.sol\":3226:3236  _price > 0 */\n      gt\n        /* \"contracts/NFTSwap.sol\":3218:3254  require(_price > 0, \"Invalid price\") */\n      tag_45\n      jumpi\n      mload(0x40)\n      0x08c379a000000000000000000000000000000000000000000000000000000000\n      dup2\n      mstore\n      0x04\n      add\n      tag_46\n      swap1\n      tag_47\n      jump\t// in\n    tag_46:\n      mload(0x40)\n      dup1\n      swap2\n      sub\n      swap1\n      revert\n    tag_45:\n        /* \"contracts/NFTSwap.sol\":3285:3291  _order */\n      dup1\n        /* \"contracts/NFTSwap.sol\":3285:3297  _order.price */\n      0x01\n      add\n      sload\n        /* \"contracts/NFTSwap.sol\":3272:3281  msg.value */\n      callvalue\n        /* \"contracts/NFTSwap.sol\":3272:3297  msg.value >= _order.price */\n      lt\n      iszero\n        /* \"contracts/NFTSwap.sol\":3264:3335  require(msg.value >= _order.price, \"Not enough value, increase price \") */\n      tag_48\n      jumpi\n      mload(0x40)\n      0x08c379a000000000000000000000000000000000000000000000000000000000\n      dup2\n      mstore\n      0x04\n      add\n      tag_49\n      swap1\n      tag_50\n      jump\t// in\n    tag_49:\n      mload(0x40)\n      dup1\n      swap2\n      sub\n      swap1\n      revert\n    tag_48:\n        /* \"contracts/NFTSwap.sol\":3418:3430  IERC721 _nft */\n      0x00\n        /* \"contracts/NFTSwap.sol\":3441:3449  _nftAddr */\n      dup5\n        /* \"contracts/NFTSwap.sol\":3418:3450  IERC721 _nft = IERC721(_nftAddr) */\n      swap1\n      pop\n        /* \"contracts/NFTSwap.sol\":3502:3506  this */\n      address\n        /* \"contracts/NFTSwap.sol\":3468:3507  _nft.ownerOf(_tokenId) == address(this) */\n      0xffffffffffffffffffffffffffffffffffffffff\n      and\n        /* \"contracts/NFTSwap.sol\":3468:3472  _nft */\n      dup2\n        /* \"contracts/NFTSwap.sol\":3468:3480  _nft.ownerOf */\n      0xffffffffffffffffffffffffffffffffffffffff\n      and\n      0x6352211e\n        /* \"contracts/NFTSwap.sol\":3481:3489  _tokenId */\n      dup7\n        /* \"contracts/NFTSwap.sol\":3468:3490  _nft.ownerOf(_tokenId) */\n      mload(0x40)\n      dup3\n      0xffffffff\n      and\n      0xe0\n      shl\n      dup2\n      mstore\n      0x04\n      add\n      tag_51\n      swap2\n      swap1\n      tag_52\n      jump\t// in\n    tag_51:\n      0x20\n      mload(0x40)\n      dup1\n      dup4\n      sub\n      dup2\n      dup7\n      gas\n      staticcall\n      iszero\n      dup1\n      iszero\n      tag_54\n      jumpi\n      returndatasize\n      0x00\n      dup1\n      returndatacopy\n      revert(0x00, returndatasize)\n    tag_54:\n      pop\n      pop\n      pop\n      pop\n      mload(0x40)\n      returndatasize\n      not(0x1f)\n      0x1f\n      dup3\n      add\n      and\n      dup3\n      add\n      dup1\n      0x40\n      mstore\n      pop\n      dup2\n      add\n      swap1\n      tag_55\n      swap2\n      swap1\n      tag_56\n      jump\t// in\n    tag_55:\n        /* \"contracts/NFTSwap.sol\":3468:3507  _nft.ownerOf(_tokenId) == address(this) */\n      0xffffffffffffffffffffffffffffffffffffffff\n      and\n      eq\n        /* \"contracts/NFTSwap.sol\":3460:3523  require(_nft.ownerOf(_tokenId) == address(this), \"Wrong Order\") */\n      tag_57\n      jumpi\n      mload(0x40)\n      0x08c379a000000000000000000000000000000000000000000000000000000000\n      dup2\n      mstore\n      0x04\n      add\n      tag_58\n      swap1\n      tag_59\n      jump\t// in\n    tag_58:\n      mload(0x40)\n      dup1\n      swap2\n      sub\n      swap1\n      revert\n    tag_57:\n        /* \"contracts/NFTSwap.sol\":3534:3538  _nft */\n      dup1\n        /* \"contracts/NFTSwap.sol\":3534:3555  _nft.safeTransferFrom */\n      0xffffffffffffffffffffffffffffffffffffffff\n      and\n      0x42842e0e\n        /* \"contracts/NFTSwap.sol\":3564:3568  this */\n      address\n        /* \"contracts/NFTSwap.sol\":3571:3581  msg.sender */\n      caller\n        /* \"contracts/NFTSwap.sol\":3583:3591  _tokenId */\n      dup8\n        /* \"contracts/NFTSwap.sol\":3534:3592  _nft.safeTransferFrom(address(this), msg.sender, _tokenId) */\n      mload(0x40)\n      dup5\n      0xffffffff\n      and\n      0xe0\n      shl\n      dup2\n      mstore\n      0x04\n      add\n      tag_60\n      swap4\n      swap3\n      swap2\n      swap1\n      tag_61\n      jump\t// in\n    tag_60:\n      0x00\n      mload(0x40)\n      dup1\n      dup4\n      sub\n      dup2\n      0x00\n      dup8\n      dup1\n      extcodesize\n      iszero\n      dup1\n      iszero\n      tag_62\n      jumpi\n      0x00\n      dup1\n      revert\n    tag_62:\n      pop\n      gas\n      call\n      iszero\n      dup1\n      iszero\n      tag_64\n      jumpi\n      returndatasize\n      0x00\n      dup1\n      returndatacopy\n      revert(0x00, returndatasize)\n    tag_64:\n      pop\n      pop\n      pop\n      pop\n        /* \"contracts/NFTSwap.sol\":3610:3616  _order */\n      dup2\n        /* \"contracts/NFTSwap.sol\":3610:3622  _order.owner */\n      0x00\n      add\n      0x00\n      swap1\n      sload\n      swap1\n      0x0100\n      exp\n      swap1\n      div\n      0xffffffffffffffffffffffffffffffffffffffff\n      and\n        /* \"contracts/NFTSwap.sol\":3602:3632  payable(_order.owner).transfer */\n      0xffffffffffffffffffffffffffffffffffffffff\n      and\n        /* \"contracts/NFTSwap.sol\":3602:3646  payable(_order.owner).transfer(_order.price) */\n      0x08fc\n        /* \"contracts/NFTSwap.sol\":3633:3639  _order */\n      dup4\n        /* \"contracts/NFTSwap.sol\":3633:3645  _order.price */\n      0x01\n      add\n      sload\n        /* \"contracts/NFTSwap.sol\":3602:3646  payable(_order.owner).transfer(_order.price) */\n      swap1\n      dup2\n      iszero\n      mul\n      swap1\n      mload(0x40)\n      0x00\n      mload(0x40)\n      dup1\n      dup4\n      sub\n      dup2\n      dup6\n      dup9\n      dup9\n      call\n      swap4\n      pop\n      pop\n      pop\n      pop\n      iszero\n      dup1\n      iszero\n      tag_66\n      jumpi\n      returndatasize\n      0x00\n      dup1\n      returndatacopy\n      revert(0x00, returndatasize)\n    tag_66:\n      pop\n        /* \"contracts/NFTSwap.sol\":3664:3674  msg.sender */\n      caller\n        /* \"contracts/NFTSwap.sol\":3656:3684  payable(msg.sender).transfer */\n      0xffffffffffffffffffffffffffffffffffffffff\n      and\n        /* \"contracts/NFTSwap.sol\":3656:3710  payable(msg.sender).transfer(msg.value - _order.price) */\n      0x08fc\n        /* \"contracts/NFTSwap.sol\":3697:3703  _order */\n      dup4\n        /* \"contracts/NFTSwap.sol\":3697:3709  _order.price */\n      0x01\n      add\n      sload\n        /* \"contracts/NFTSwap.sol\":3685:3694  msg.value */\n      callvalue\n        /* \"contracts/NFTSwap.sol\":3685:3709  msg.value - _order.price */\n      tag_67\n      swap2\n      swap1\n      tag_68\n      jump\t// in\n    tag_67:\n        /* \"contracts/NFTSwap.sol\":3656:3710  payable(msg.sender).transfer(msg.value - _order.price) */\n      swap1\n      dup2\n      iszero\n      mul\n      swap1\n      mload(0x40)\n      0x00\n      mload(0x40)\n      dup1\n      dup4\n      sub\n      dup2\n      dup6\n      dup9\n      dup9\n      call\n      swap4\n      pop\n      pop\n      pop\n      pop\n      iszero\n      dup1\n      iszero\n      tag_70\n      jumpi\n      returndatasize\n      0x00\n      dup1\n      returndatacopy\n      revert(0x00, returndatasize)\n    tag_70:\n      pop\n        /* \"contracts/NFTSwap.sol\":3727:3734  nftList */\n      0x00\n        /* \"contracts/NFTSwap.sol\":3727:3744  nftList[_nftAddr] */\n      dup1\n        /* \"contracts/NFTSwap.sol\":3735:3743  _nftAddr */\n      dup7\n        /* \"contracts/NFTSwap.sol\":3727:3744  nftList[_nftAddr] */\n      0xffffffffffffffffffffffffffffffffffffffff\n      and\n      0xffffffffffffffffffffffffffffffffffffffff\n      and\n      dup2\n      mstore\n      0x20\n      add\n      swap1\n      dup2\n      mstore\n      0x20\n      add\n      0x00\n      keccak256\n        /* \"contracts/NFTSwap.sol\":3727:3754  nftList[_nftAddr][_tokenId] */\n      0x00\n        /* \"contracts/NFTSwap.sol\":3745:3753  _tokenId */\n      dup6\n        /* \"contracts/NFTSwap.sol\":3727:3754  nftList[_nftAddr][_tokenId] */\n      dup2\n      mstore\n      0x20\n      add\n      swap1\n      dup2\n      mstore\n      0x20\n      add\n      0x00\n      keccak256\n      0x00\n        /* \"contracts/NFTSwap.sol\":3720:3754  delete nftList[_nftAddr][_tokenId] */\n      dup1\n      dup3\n      add\n      exp(0x0100, 0x00)\n      dup2\n      sload\n      swap1\n      0xffffffffffffffffffffffffffffffffffffffff\n      mul\n      not\n      and\n      swap1\n      sstore\n      0x01\n      dup3\n      add\n      0x00\n      swap1\n      sstore\n      pop\n      pop\n        /* \"contracts/NFTSwap.sol\":3801:3809  _tokenId */\n      dup4\n        /* \"contracts/NFTSwap.sol\":3791:3799  _nftAddr */\n      dup6\n        /* \"contracts/NFTSwap.sol\":3770:3824  Purchase(msg.sender, _nftAddr, _tokenId, _order.price) */\n      0xffffffffffffffffffffffffffffffffffffffff\n      and\n        /* \"contracts/NFTSwap.sol\":3779:3789  msg.sender */\n      caller\n        /* \"contracts/NFTSwap.sol\":3770:3824  Purchase(msg.sender, _nftAddr, _tokenId, _order.price) */\n      0xffffffffffffffffffffffffffffffffffffffff\n      and\n      0x46661dab58311a6838247afecbee792192b4f27fc8b3e7168c66bc55ec2e404e\n        /* \"contracts/NFTSwap.sol\":3811:3817  _order */\n      dup6\n        /* \"contracts/NFTSwap.sol\":3811:3823  _order.price */\n      0x01\n      add\n      sload\n        /* \"contracts/NFTSwap.sol\":3770:3824  Purchase(msg.sender, _nftAddr, _tokenId, _order.price) */\n      mload(0x40)\n      tag_71\n      swap2\n      swap1\n      tag_52\n      jump\t// in\n    tag_71:\n      mload(0x40)\n      dup1\n      swap2\n      sub\n      swap1\n      log4\n        /* \"contracts/NFTSwap.sol\":3148:3832  {... */\n      pop\n      pop\n        /* \"contracts/NFTSwap.sol\":3064:3832  function purchase(address _nftAddr, uint256 _tokenId, uint256 _price) payable public{... */\n      pop\n      pop\n      pop\n      jump\t// out\n        /* \"contracts/NFTSwap.sol\":1558:1618  mapping(address => mapping(uint256 => Order)) public nftList */\n    tag_27:\n      mstore(0x20, 0x00)\n      dup2\n      0x00\n      mstore\n      mstore(0x20, keccak256(0x00, 0x40))\n      dup1\n      0x00\n      mstore\n      keccak256(0x00, 0x40)\n      0x00\n      swap2\n      pop\n      swap2\n      pop\n      pop\n      dup1\n      0x00\n      add\n      0x00\n      swap1\n      sload\n      swap1\n      0x0100\n      exp\n      swap1\n      div\n      0xffffffffffffffffffffffffffffffffffffffff\n      and\n      swap1\n      dup1\n      0x01\n      add\n      sload\n      swap1\n      pop\n      dup3\n      jump\t// out\n        /* \"contracts/NFTSwap.sol\":3840:4321  function update(address _nftAddr, uint256 _tokenId, uint256 _newPrice) public {... */\n    tag_33:\n        /* \"contracts/NFTSwap.sol\":3948:3949  0 */\n      0x00\n        /* \"contracts/NFTSwap.sol\":3936:3945  _newPrice */\n      dup2\n        /* \"contracts/NFTSwap.sol\":3936:3949  _newPrice > 0 */\n      gt\n        /* \"contracts/NFTSwap.sol\":3928:3967  require(_newPrice > 0, \"Invalid price\") */\n      tag_73\n      jumpi\n      mload(0x40)\n      0x08c379a000000000000000000000000000000000000000000000000000000000\n      dup2\n      mstore\n      0x04\n      add\n      tag_74\n      swap1\n      tag_47\n      jump\t// in\n    tag_74:\n      mload(0x40)\n      dup1\n      swap2\n      sub\n      swap1\n      revert\n    tag_73:\n        /* \"contracts/NFTSwap.sol\":3977:3997  Order storage _order */\n      0x00\n        /* \"contracts/NFTSwap.sol\":4000:4007  nftList */\n      dup1\n        /* \"contracts/NFTSwap.sol\":4000:4017  nftList[_nftAddr] */\n      0x00\n        /* \"contracts/NFTSwap.sol\":4008:4016  _nftAddr */\n      dup6\n        /* \"contracts/NFTSwap.sol\":4000:4017  nftList[_nftAddr] */\n      0xffffffffffffffffffffffffffffffffffffffff\n      and\n      0xffffffffffffffffffffffffffffffffffffffff\n      and\n      dup2\n      mstore\n      0x20\n      add\n      swap1\n      dup2\n      mstore\n      0x20\n      add\n      0x00\n      keccak256\n        /* \"contracts/NFTSwap.sol\":4000:4027  nftList[_nftAddr][_tokenId] */\n      0x00\n        /* \"contracts/NFTSwap.sol\":4018:4026  _tokenId */\n      dup5\n        /* \"contracts/NFTSwap.sol\":4000:4027  nftList[_nftAddr][_tokenId] */\n      dup2\n      mstore\n      0x20\n      add\n      swap1\n      dup2\n      mstore\n      0x20\n      add\n      0x00\n      keccak256\n        /* \"contracts/NFTSwap.sol\":3977:4027  Order storage _order = nftList[_nftAddr][_tokenId] */\n      swap1\n      pop\n        /* \"contracts/NFTSwap.sol\":4061:4071  msg.sender */\n      caller\n        /* \"contracts/NFTSwap.sol\":4045:4071  _order.owner == msg.sender */\n      0xffffffffffffffffffffffffffffffffffffffff\n      and\n        /* \"contracts/NFTSwap.sol\":4045:4051  _order */\n      dup2\n        /* \"contracts/NFTSwap.sol\":4045:4057  _order.owner */\n      0x00\n      add\n      0x00\n      swap1\n      sload\n      swap1\n      0x0100\n      exp\n      swap1\n      div\n      0xffffffffffffffffffffffffffffffffffffffff\n      and\n        /* \"contracts/NFTSwap.sol\":4045:4071  _order.owner == msg.sender */\n      0xffffffffffffffffffffffffffffffffffffffff\n      and\n      eq\n        /* \"contracts/NFTSwap.sol\":4037:4089  require(_order.owner == msg.sender, \"not the owner\") */\n      tag_75\n      jumpi\n      mload(0x40)\n      0x08c379a000000000000000000000000000000000000000000000000000000000\n      dup2\n      mstore\n      0x04\n      add\n      tag_76\n      swap1\n      tag_77\n      jump\t// in\n    tag_76:\n      mload(0x40)\n      dup1\n      swap2\n      sub\n      swap1\n      revert\n    tag_75:\n        /* \"contracts/NFTSwap.sol\":4100:4112  IERC721 _nft */\n      0x00\n        /* \"contracts/NFTSwap.sol\":4123:4131  _nftAddr */\n      dup5\n        /* \"contracts/NFTSwap.sol\":4100:4132  IERC721 _nft = IERC721(_nftAddr) */\n      swap1\n      pop\n        /* \"contracts/NFTSwap.sol\":4184:4188  this */\n      address\n        /* \"contracts/NFTSwap.sol\":4150:4189  _nft.ownerOf(_tokenId) == address(this) */\n      0xffffffffffffffffffffffffffffffffffffffff\n      and\n        /* \"contracts/NFTSwap.sol\":4150:4154  _nft */\n      dup2\n        /* \"contracts/NFTSwap.sol\":4150:4162  _nft.ownerOf */\n      0xffffffffffffffffffffffffffffffffffffffff\n      and\n      0x6352211e\n        /* \"contracts/NFTSwap.sol\":4163:4171  _tokenId */\n      dup7\n        /* \"contracts/NFTSwap.sol\":4150:4172  _nft.ownerOf(_tokenId) */\n      mload(0x40)\n      dup3\n      0xffffffff\n      and\n      0xe0\n      shl\n      dup2\n      mstore\n      0x04\n      add\n      tag_78\n      swap2\n      swap1\n      tag_52\n      jump\t// in\n    tag_78:\n      0x20\n      mload(0x40)\n      dup1\n      dup4\n      sub\n      dup2\n      dup7\n      gas\n      staticcall\n      iszero\n      dup1\n      iszero\n      tag_80\n      jumpi\n      returndatasize\n      0x00\n      dup1\n      returndatacopy\n      revert(0x00, returndatasize)\n    tag_80:\n      pop\n      pop\n      pop\n      pop\n      mload(0x40)\n      returndatasize\n      not(0x1f)\n      0x1f\n      dup3\n      add\n      and\n      dup3\n      add\n      dup1\n      0x40\n      mstore\n      pop\n      dup2\n      add\n      swap1\n      tag_81\n      swap2\n      swap1\n      tag_56\n      jump\t// in\n    tag_81:\n        /* \"contracts/NFTSwap.sol\":4150:4189  _nft.ownerOf(_tokenId) == address(this) */\n      0xffffffffffffffffffffffffffffffffffffffff\n      and\n      eq\n        /* \"contracts/NFTSwap.sol\":4142:4205  require(_nft.ownerOf(_tokenId) == address(this), \"Wrong Order\") */\n      tag_82\n      jumpi\n      mload(0x40)\n      0x08c379a000000000000000000000000000000000000000000000000000000000\n      dup2\n      mstore\n      0x04\n      add\n      tag_83\n      swap1\n      tag_59\n      jump\t// in\n    tag_83:\n      mload(0x40)\n      dup1\n      swap2\n      sub\n      swap1\n      revert\n    tag_82:\n        /* \"contracts/NFTSwap.sol\":4231:4240  _newPrice */\n      dup3\n        /* \"contracts/NFTSwap.sol\":4216:4222  _order */\n      dup3\n        /* \"contracts/NFTSwap.sol\":4216:4228  _order.price */\n      0x01\n      add\n        /* \"contracts/NFTSwap.sol\":4216:4240  _order.price = _newPrice */\n      dup2\n      swap1\n      sstore\n      pop\n        /* \"contracts/NFTSwap.sol\":4285:4293  _tokenId */\n      dup4\n        /* \"contracts/NFTSwap.sol\":4275:4283  _nftAddr */\n      dup6\n        /* \"contracts/NFTSwap.sol\":4256:4305  Update(msg.sender, _nftAddr, _tokenId, _newPrice) */\n      0xffffffffffffffffffffffffffffffffffffffff\n      and\n        /* \"contracts/NFTSwap.sol\":4263:4273  msg.sender */\n      caller\n        /* \"contracts/NFTSwap.sol\":4256:4305  Update(msg.sender, _nftAddr, _tokenId, _newPrice) */\n      0xffffffffffffffffffffffffffffffffffffffff\n      and\n      0xb7f0ca7cd5b24651672216886135b99ff40342bcf549009a4c6fc74f059fb9a0\n        /* \"contracts/NFTSwap.sol\":4295:4304  _newPrice */\n      dup7\n        /* \"contracts/NFTSwap.sol\":4256:4305  Update(msg.sender, _nftAddr, _tokenId, _newPrice) */\n      mload(0x40)\n      tag_84\n      swap2\n      swap1\n      tag_52\n      jump\t// in\n    tag_84:\n      mload(0x40)\n      dup1\n      swap2\n      sub\n      swap1\n      log4\n        /* \"contracts/NFTSwap.sol\":3918:4321  {... */\n      pop\n      pop\n        /* \"contracts/NFTSwap.sol\":3840:4321  function update(address _nftAddr, uint256 _tokenId, uint256 _newPrice) public {... */\n      pop\n      pop\n      pop\n      jump\t// out\n        /* \"contracts/NFTSwap.sol\":1969:2579  function list(address _nftAddr, uint256 _tokenId, uint256 _price) public{... */\n    tag_37:\n        /* \"contracts/NFTSwap.sol\":2051:2063  IERC721 _nft */\n      0x00\n        /* \"contracts/NFTSwap.sol\":2074:2082  _nftAddr */\n      dup4\n        /* \"contracts/NFTSwap.sol\":2051:2083  IERC721 _nft = IERC721(_nftAddr) */\n      swap1\n      pop\n        /* \"contracts/NFTSwap.sol\":2110:2111  0 */\n      0x00\n        /* \"contracts/NFTSwap.sol\":2101:2107  _price */\n      dup3\n        /* \"contracts/NFTSwap.sol\":2101:2111  _price > 0 */\n      gt\n        /* \"contracts/NFTSwap.sol\":2093:2112  require(_price > 0) */\n      tag_86\n      jumpi\n      0x00\n      dup1\n      revert\n    tag_86:\n        /* \"contracts/NFTSwap.sol\":2168:2172  this */\n      address\n        /* \"contracts/NFTSwap.sol\":2130:2173  _nft.getApproved(_tokenId) == address(this) */\n      0xffffffffffffffffffffffffffffffffffffffff\n      and\n        /* \"contracts/NFTSwap.sol\":2130:2134  _nft */\n      dup2\n        /* \"contracts/NFTSwap.sol\":2130:2146  _nft.getApproved */\n      0xffffffffffffffffffffffffffffffffffffffff\n      and\n      0x081812fc\n        /* \"contracts/NFTSwap.sol\":2147:2155  _tokenId */\n      dup6\n        /* \"contracts/NFTSwap.sol\":2130:2156  _nft.getApproved(_tokenId) */\n      mload(0x40)\n      dup3\n      0xffffffff\n      and\n      0xe0\n      shl\n      dup2\n      mstore\n      0x04\n      add\n      tag_87\n      swap2\n      swap1\n      tag_52\n      jump\t// in\n    tag_87:\n      0x20\n      mload(0x40)\n      dup1\n      dup4\n      sub\n      dup2\n      dup7\n      gas\n      staticcall\n      iszero\n      dup1\n      iszero\n      tag_89\n      jumpi\n      returndatasize\n      0x00\n      dup1\n      returndatacopy\n      revert(0x00, returndatasize)\n    tag_89:\n      pop\n      pop\n      pop\n      pop\n      mload(0x40)\n      returndatasize\n      not(0x1f)\n      0x1f\n      dup3\n      add\n      and\n      dup3\n      add\n      dup1\n      0x40\n      mstore\n      pop\n      dup2\n      add\n      swap1\n      tag_90\n      swap2\n      swap1\n      tag_56\n      jump\t// in\n    tag_90:\n        /* \"contracts/NFTSwap.sol\":2130:2173  _nft.getApproved(_tokenId) == address(this) */\n      0xffffffffffffffffffffffffffffffffffffffff\n      and\n      eq\n        /* \"contracts/NFTSwap.sol\":2122:2191  require(_nft.getApproved(_tokenId) == address(this), \"Seek Approval\") */\n      tag_91\n      jumpi\n      mload(0x40)\n      0x08c379a000000000000000000000000000000000000000000000000000000000\n      dup2\n      mstore\n      0x04\n      add\n      tag_92\n      swap1\n      tag_93\n      jump\t// in\n    tag_92:\n      mload(0x40)\n      dup1\n      swap2\n      sub\n      swap1\n      revert\n    tag_91:\n        /* \"contracts/NFTSwap.sol\":2202:2222  Order storage _order */\n      0x00\n        /* \"contracts/NFTSwap.sol\":2226:2233  nftList */\n      dup1\n        /* \"contracts/NFTSwap.sol\":2226:2243  nftList[_nftAddr] */\n      0x00\n        /* \"contracts/NFTSwap.sol\":2234:2242  _nftAddr */\n      dup7\n        /* \"contracts/NFTSwap.sol\":2226:2243  nftList[_nftAddr] */\n      0xffffffffffffffffffffffffffffffffffffffff\n      and\n      0xffffffffffffffffffffffffffffffffffffffff\n      and\n      dup2\n      mstore\n      0x20\n      add\n      swap1\n      dup2\n      mstore\n      0x20\n      add\n      0x00\n      keccak256\n        /* \"contracts/NFTSwap.sol\":2226:2253  nftList[_nftAddr][_tokenId] */\n      0x00\n        /* \"contracts/NFTSwap.sol\":2244:2252  _tokenId */\n      dup6\n        /* \"contracts/NFTSwap.sol\":2226:2253  nftList[_nftAddr][_tokenId] */\n      dup2\n      mstore\n      0x20\n      add\n      swap1\n      dup2\n      mstore\n      0x20\n      add\n      0x00\n      keccak256\n        /* \"contracts/NFTSwap.sol\":2202:2253  Order storage _order =  nftList[_nftAddr][_tokenId] */\n      swap1\n      pop\n        /* \"contracts/NFTSwap.sol\":2311:2321  msg.sender */\n      caller\n        /* \"contracts/NFTSwap.sol\":2296:2302  _order */\n      dup2\n        /* \"contracts/NFTSwap.sol\":2296:2308  _order.owner */\n      0x00\n      add\n      0x00\n        /* \"contracts/NFTSwap.sol\":2296:2321  _order.owner = msg.sender */\n      0x0100\n      exp\n      dup2\n      sload\n      dup2\n      0xffffffffffffffffffffffffffffffffffffffff\n      mul\n      not\n      and\n      swap1\n      dup4\n      0xffffffffffffffffffffffffffffffffffffffff\n      and\n      mul\n      or\n      swap1\n      sstore\n      pop\n        /* \"contracts/NFTSwap.sol\":2368:2374  _price */\n      dup3\n        /* \"contracts/NFTSwap.sol\":2353:2359  _order */\n      dup2\n        /* \"contracts/NFTSwap.sol\":2353:2365  _order.price */\n      0x01\n      add\n        /* \"contracts/NFTSwap.sol\":2353:2374  _order.price = _price */\n      dup2\n      swap1\n      sstore\n      pop\n        /* \"contracts/NFTSwap.sol\":2425:2429  _nft */\n      dup2\n        /* \"contracts/NFTSwap.sol\":2425:2446  _nft.safeTransferFrom */\n      0xffffffffffffffffffffffffffffffffffffffff\n      and\n      0x42842e0e\n        /* \"contracts/NFTSwap.sol\":2447:2457  msg.sender */\n      caller\n        /* \"contracts/NFTSwap.sol\":2467:2471  this */\n      address\n        /* \"contracts/NFTSwap.sol\":2474:2482  _tokenId */\n      dup8\n        /* \"contracts/NFTSwap.sol\":2425:2483  _nft.safeTransferFrom(msg.sender, address(this), _tokenId) */\n      mload(0x40)\n      dup5\n      0xffffffff\n      and\n      0xe0\n      shl\n      dup2\n      mstore\n      0x04\n      add\n      tag_94\n      swap4\n      swap3\n      swap2\n      swap1\n      tag_61\n      jump\t// in\n    tag_94:\n      0x00\n      mload(0x40)\n      dup1\n      dup4\n      sub\n      dup2\n      0x00\n      dup8\n      dup1\n      extcodesize\n      iszero\n      dup1\n      iszero\n      tag_95\n      jumpi\n      0x00\n      dup1\n      revert\n    tag_95:\n      pop\n      gas\n      call\n      iszero\n      dup1\n      iszero\n      tag_97\n      jumpi\n      returndatasize\n      0x00\n      dup1\n      returndatacopy\n      revert(0x00, returndatasize)\n    tag_97:\n      pop\n      pop\n      pop\n      pop\n        /* \"contracts/NFTSwap.sol\":2554:2562  _tokenId */\n      dup4\n        /* \"contracts/NFTSwap.sol\":2544:2552  _nftAddr */\n      dup6\n        /* \"contracts/NFTSwap.sol\":2527:2571  List(msg.sender, _nftAddr, _tokenId, _price) */\n      0xffffffffffffffffffffffffffffffffffffffff\n      and\n        /* \"contracts/NFTSwap.sol\":2532:2542  msg.sender */\n      caller\n        /* \"contracts/NFTSwap.sol\":2527:2571  List(msg.sender, _nftAddr, _tokenId, _price) */\n      0xffffffffffffffffffffffffffffffffffffffff\n      and\n      0xedbdf022944a3291f4b30148903a84720506f48e10478ec5812e5caf30e1fab0\n        /* \"contracts/NFTSwap.sol\":2564:2570  _price */\n      dup7\n        /* \"contracts/NFTSwap.sol\":2527:2571  List(msg.sender, _nftAddr, _tokenId, _price) */\n      mload(0x40)\n      tag_98\n      swap2\n      swap1\n      tag_52\n      jump\t// in\n    tag_98:\n      mload(0x40)\n      dup1\n      swap2\n      sub\n      swap1\n      log4\n        /* \"contracts/NFTSwap.sol\":2041:2579  {... */\n      pop\n      pop\n        /* \"contracts/NFTSwap.sol\":1969:2579  function list(address _nftAddr, uint256 _tokenId, uint256 _price) public{... */\n      pop\n      pop\n      pop\n      jump\t// out\n        /* \"contracts/NFTSwap.sol\":2586:3057  function revoke(address _nftAddr, uint256 _tokenId ) public {... */\n    tag_41:\n        /* \"contracts/NFTSwap.sol\":2656:2676  Order storage _order */\n      0x00\n        /* \"contracts/NFTSwap.sol\":2679:2686  nftList */\n      dup1\n        /* \"contracts/NFTSwap.sol\":2679:2696  nftList[_nftAddr] */\n      0x00\n        /* \"contracts/NFTSwap.sol\":2687:2695  _nftAddr */\n      dup5\n        /* \"contracts/NFTSwap.sol\":2679:2696  nftList[_nftAddr] */\n      0xffffffffffffffffffffffffffffffffffffffff\n      and\n      0xffffffffffffffffffffffffffffffffffffffff\n      and\n      dup2\n      mstore\n      0x20\n      add\n      swap1\n      dup2\n      mstore\n      0x20\n      add\n      0x00\n      keccak256\n        /* \"contracts/NFTSwap.sol\":2679:2706  nftList[_nftAddr][_tokenId] */\n      0x00\n        /* \"contracts/NFTSwap.sol\":2697:2705  _tokenId */\n      dup4\n        /* \"contracts/NFTSwap.sol\":2679:2706  nftList[_nftAddr][_tokenId] */\n      dup2\n      mstore\n      0x20\n      add\n      swap1\n      dup2\n      mstore\n      0x20\n      add\n      0x00\n      keccak256\n        /* \"contracts/NFTSwap.sol\":2656:2706  Order storage _order = nftList[_nftAddr][_tokenId] */\n      swap1\n      pop\n        /* \"contracts/NFTSwap.sol\":2740:2750  msg.sender */\n      caller\n        /* \"contracts/NFTSwap.sol\":2724:2750  _order.owner == msg.sender */\n      0xffffffffffffffffffffffffffffffffffffffff\n      and\n        /* \"contracts/NFTSwap.sol\":2724:2730  _order */\n      dup2\n        /* \"contracts/NFTSwap.sol\":2724:2736  _order.owner */\n      0x00\n      add\n      0x00\n      swap1\n      sload\n      swap1\n      0x0100\n      exp\n      swap1\n      div\n      0xffffffffffffffffffffffffffffffffffffffff\n      and\n        /* \"contracts/NFTSwap.sol\":2724:2750  _order.owner == msg.sender */\n      0xffffffffffffffffffffffffffffffffffffffff\n      and\n      eq\n        /* \"contracts/NFTSwap.sol\":2716:2768  require(_order.owner == msg.sender, \"not the owner\") */\n      tag_100\n      jumpi\n      mload(0x40)\n      0x08c379a000000000000000000000000000000000000000000000000000000000\n      dup2\n      mstore\n      0x04\n      add\n      tag_101\n      swap1\n      tag_77\n      jump\t// in\n    tag_101:\n      mload(0x40)\n      dup1\n      swap2\n      sub\n      swap1\n      revert\n    tag_100:\n        /* \"contracts/NFTSwap.sol\":2780:2792  IERC721 _nft */\n      0x00\n        /* \"contracts/NFTSwap.sol\":2803:2811  _nftAddr */\n      dup4\n        /* \"contracts/NFTSwap.sol\":2780:2812  IERC721 _nft = IERC721(_nftAddr) */\n      swap1\n      pop\n        /* \"contracts/NFTSwap.sol\":2864:2868  this */\n      address\n        /* \"contracts/NFTSwap.sol\":2830:2869  _nft.ownerOf(_tokenId) == address(this) */\n      0xffffffffffffffffffffffffffffffffffffffff\n      and\n        /* \"contracts/NFTSwap.sol\":2830:2834  _nft */\n      dup2\n        /* \"contracts/NFTSwap.sol\":2830:2842  _nft.ownerOf */\n      0xffffffffffffffffffffffffffffffffffffffff\n      and\n      0x6352211e\n        /* \"contracts/NFTSwap.sol\":2843:2851  _tokenId */\n      dup6\n        /* \"contracts/NFTSwap.sol\":2830:2852  _nft.ownerOf(_tokenId) */\n      mload(0x40)\n      dup3\n      0xffffffff\n      and\n      0xe0\n      shl\n      dup2\n      mstore\n      0x04\n      add\n      tag_102\n      swap2\n      swap1\n      tag_52\n      jump\t// in\n    tag_102:\n      0x20\n      mload(0x40)\n      dup1\n      dup4\n      sub\n      dup2\n      dup7\n      gas\n      staticcall\n      iszero\n      dup1\n      iszero\n      tag_104\n      jumpi\n      returndatasize\n      0x00\n      dup1\n      returndatacopy\n      revert(0x00, returndatasize)\n    tag_104:\n      pop\n      pop\n      pop\n      pop\n      mload(0x40)\n      returndatasize\n      not(0x1f)\n      0x1f\n      dup3\n      add\n      and\n      dup3\n      add\n      dup1\n      0x40\n      mstore\n      pop\n      dup2\n      add\n      swap1\n      tag_105\n      swap2\n      swap1\n      tag_56\n      jump\t// in\n    tag_105:\n        /* \"contracts/NFTSwap.sol\":2830:2869  _nft.ownerOf(_tokenId) == address(this) */\n      0xffffffffffffffffffffffffffffffffffffffff\n      and\n      eq\n        /* \"contracts/NFTSwap.sol\":2822:2885  require(_nft.ownerOf(_tokenId) == address(this), \"Wrong Order\") */\n      tag_106\n      jumpi\n      mload(0x40)\n      0x08c379a000000000000000000000000000000000000000000000000000000000\n      dup2\n      mstore\n      0x04\n      add\n      tag_107\n      swap1\n      tag_59\n      jump\t// in\n    tag_107:\n      mload(0x40)\n      dup1\n      swap2\n      sub\n      swap1\n      revert\n    tag_106:\n        /* \"contracts/NFTSwap.sol\":2896:2900  _nft */\n      dup1\n        /* \"contracts/NFTSwap.sol\":2896:2917  _nft.safeTransferFrom */\n      0xffffffffffffffffffffffffffffffffffffffff\n      and\n      0x42842e0e\n        /* \"contracts/NFTSwap.sol\":2926:2930  this */\n      address\n        /* \"contracts/NFTSwap.sol\":2933:2943  msg.sender */\n      caller\n        /* \"contracts/NFTSwap.sol\":2945:2953  _tokenId */\n      dup7\n        /* \"contracts/NFTSwap.sol\":2896:2954  _nft.safeTransferFrom(address(this), msg.sender, _tokenId) */\n      mload(0x40)\n      dup5\n      0xffffffff\n      and\n      0xe0\n      shl\n      dup2\n      mstore\n      0x04\n      add\n      tag_108\n      swap4\n      swap3\n      swap2\n      swap1\n      tag_61\n      jump\t// in\n    tag_108:\n      0x00\n      mload(0x40)\n      dup1\n      dup4\n      sub\n      dup2\n      0x00\n      dup8\n      dup1\n      extcodesize\n      iszero\n      dup1\n      iszero\n      tag_109\n      jumpi\n      0x00\n      dup1\n      revert\n    tag_109:\n      pop\n      gas\n      call\n      iszero\n      dup1\n      iszero\n      tag_111\n      jumpi\n      returndatasize\n      0x00\n      dup1\n      returndatacopy\n      revert(0x00, returndatasize)\n    tag_111:\n      pop\n      pop\n      pop\n      pop\n        /* \"contracts/NFTSwap.sol\":2971:2978  nftList */\n      0x00\n        /* \"contracts/NFTSwap.sol\":2971:2988  nftList[_nftAddr] */\n      dup1\n        /* \"contracts/NFTSwap.sol\":2979:2987  _nftAddr */\n      dup6\n        /* \"contracts/NFTSwap.sol\":2971:2988  nftList[_nftAddr] */\n      0xffffffffffffffffffffffffffffffffffffffff\n      and\n      0xffffffffffffffffffffffffffffffffffffffff\n      and\n      dup2\n      mstore\n      0x20\n      add\n      swap1\n      dup2\n      mstore\n      0x20\n      add\n      0x00\n      keccak256\n        /* \"contracts/NFTSwap.sol\":2971:2998  nftList[_nftAddr][_tokenId] */\n      0x00\n        /* \"contracts/NFTSwap.sol\":2989:2997  _tokenId */\n      dup5\n        /* \"contracts/NFTSwap.sol\":2971:2998  nftList[_nftAddr][_tokenId] */\n      dup2\n      mstore\n      0x20\n      add\n      swap1\n      dup2\n      mstore\n      0x20\n      add\n      0x00\n      keccak256\n      0x00\n        /* \"contracts/NFTSwap.sol\":2964:2998  delete nftList[_nftAddr][_tokenId] */\n      dup1\n      dup3\n      add\n      exp(0x0100, 0x00)\n      dup2\n      sload\n      swap1\n      0xffffffffffffffffffffffffffffffffffffffff\n      mul\n      not\n      and\n      swap1\n      sstore\n      0x01\n      dup3\n      add\n      0x00\n      swap1\n      sstore\n      pop\n      pop\n        /* \"contracts/NFTSwap.sol\":3040:3048  _tokenId */\n      dup3\n        /* \"contracts/NFTSwap.sol\":3031:3039  _nftAddr */\n      dup5\n        /* \"contracts/NFTSwap.sol\":3013:3049  Revoke(msg.sender,_nftAddr,_tokenId) */\n      0xffffffffffffffffffffffffffffffffffffffff\n      and\n        /* \"contracts/NFTSwap.sol\":3020:3030  msg.sender */\n      caller\n        /* \"contracts/NFTSwap.sol\":3013:3049  Revoke(msg.sender,_nftAddr,_tokenId) */\n      0xffffffffffffffffffffffffffffffffffffffff\n      and\n      0xb698e31a2abee5824d0d7bcfd2339aead7f9e9ae413fba50bf554ff3fa470b7b\n      mload(0x40)\n      mload(0x40)\n      dup1\n      swap2\n      sub\n      swap1\n      log4\n        /* \"contracts/NFTSwap.sol\":2646:3057  {... */\n      pop\n      pop\n        /* \"contracts/NFTSwap.sol\":2586:3057  function revoke(address _nftAddr, uint256 _tokenId ) public {... */\n      pop\n      pop\n      jump\t// out\n        /* \"#utility.yul\":88:205   */\n    tag_113:\n        /* \"#utility.yul\":197:198   */\n      0x00\n        /* \"#utility.yul\":194:195   */\n      dup1\n        /* \"#utility.yul\":187:199   */\n      revert\n        /* \"#utility.yul\":211:328   */\n    tag_114:\n        /* \"#utility.yul\":320:321   */\n      0x00\n        /* \"#utility.yul\":317:318   */\n      dup1\n        /* \"#utility.yul\":310:322   */\n      revert\n        /* \"#utility.yul\":334:460   */\n    tag_115:\n        /* \"#utility.yul\":371:378   */\n      0x00\n        /* \"#utility.yul\":411:453   */\n      0xffffffffffffffffffffffffffffffffffffffff\n        /* \"#utility.yul\":404:409   */\n      dup3\n        /* \"#utility.yul\":400:454   */\n      and\n        /* \"#utility.yul\":389:454   */\n      swap1\n      pop\n        /* \"#utility.yul\":334:460   */\n      swap2\n      swap1\n      pop\n      jump\t// out\n        /* \"#utility.yul\":466:562   */\n    tag_116:\n        /* \"#utility.yul\":503:510   */\n      0x00\n        /* \"#utility.yul\":532:556   */\n      tag_149\n        /* \"#utility.yul\":550:555   */\n      dup3\n        /* \"#utility.yul\":532:556   */\n      tag_115\n      jump\t// in\n    tag_149:\n        /* \"#utility.yul\":521:556   */\n      swap1\n      pop\n        /* \"#utility.yul\":466:562   */\n      swap2\n      swap1\n      pop\n      jump\t// out\n        /* \"#utility.yul\":568:690   */\n    tag_117:\n        /* \"#utility.yul\":641:665   */\n      tag_151\n        /* \"#utility.yul\":659:664   */\n      dup2\n        /* \"#utility.yul\":641:665   */\n      tag_116\n      jump\t// in\n    tag_151:\n        /* \"#utility.yul\":634:639   */\n      dup2\n        /* \"#utility.yul\":631:666   */\n      eq\n        /* \"#utility.yul\":621:684   */\n      tag_152\n      jumpi\n        /* \"#utility.yul\":680:681   */\n      0x00\n        /* \"#utility.yul\":677:678   */\n      dup1\n        /* \"#utility.yul\":670:682   */\n      revert\n        /* \"#utility.yul\":621:684   */\n    tag_152:\n        /* \"#utility.yul\":568:690   */\n      pop\n      jump\t// out\n        /* \"#utility.yul\":696:835   */\n    tag_118:\n        /* \"#utility.yul\":742:747   */\n      0x00\n        /* \"#utility.yul\":780:786   */\n      dup2\n        /* \"#utility.yul\":767:787   */\n      calldataload\n        /* \"#utility.yul\":758:787   */\n      swap1\n      pop\n        /* \"#utility.yul\":796:829   */\n      tag_154\n        /* \"#utility.yul\":823:828   */\n      dup2\n        /* \"#utility.yul\":796:829   */\n      tag_117\n      jump\t// in\n    tag_154:\n        /* \"#utility.yul\":696:835   */\n      swap3\n      swap2\n      pop\n      pop\n      jump\t// out\n        /* \"#utility.yul\":841:918   */\n    tag_119:\n        /* \"#utility.yul\":878:885   */\n      0x00\n        /* \"#utility.yul\":907:912   */\n      dup2\n        /* \"#utility.yul\":896:912   */\n      swap1\n      pop\n        /* \"#utility.yul\":841:918   */\n      swap2\n      swap1\n      pop\n      jump\t// out\n        /* \"#utility.yul\":924:1046   */\n    tag_120:\n        /* \"#utility.yul\":997:1021   */\n      tag_157\n        /* \"#utility.yul\":1015:1020   */\n      dup2\n        /* \"#utility.yul\":997:1021   */\n      tag_119\n      jump\t// in\n    tag_157:\n        /* \"#utility.yul\":990:995   */\n      dup2\n        /* \"#utility.yul\":987:1022   */\n      eq\n        /* \"#utility.yul\":977:1040   */\n      tag_158\n      jumpi\n        /* \"#utility.yul\":1036:1037   */\n      0x00\n        /* \"#utility.yul\":1033:1034   */\n      dup1\n        /* \"#utility.yul\":1026:1038   */\n      revert\n        /* \"#utility.yul\":977:1040   */\n    tag_158:\n        /* \"#utility.yul\":924:1046   */\n      pop\n      jump\t// out\n        /* \"#utility.yul\":1052:1191   */\n    tag_121:\n        /* \"#utility.yul\":1098:1103   */\n      0x00\n        /* \"#utility.yul\":1136:1142   */\n      dup2\n        /* \"#utility.yul\":1123:1143   */\n      calldataload\n        /* \"#utility.yul\":1114:1143   */\n      swap1\n      pop\n        /* \"#utility.yul\":1152:1185   */\n      tag_160\n        /* \"#utility.yul\":1179:1184   */\n      dup2\n        /* \"#utility.yul\":1152:1185   */\n      tag_120\n      jump\t// in\n    tag_160:\n        /* \"#utility.yul\":1052:1191   */\n      swap3\n      swap2\n      pop\n      pop\n      jump\t// out\n        /* \"#utility.yul\":1197:1314   */\n    tag_122:\n        /* \"#utility.yul\":1306:1307   */\n      0x00\n        /* \"#utility.yul\":1303:1304   */\n      dup1\n        /* \"#utility.yul\":1296:1308   */\n      revert\n        /* \"#utility.yul\":1320:1437   */\n    tag_123:\n        /* \"#utility.yul\":1429:1430   */\n      0x00\n        /* \"#utility.yul\":1426:1427   */\n      dup1\n        /* \"#utility.yul\":1419:1431   */\n      revert\n        /* \"#utility.yul\":1443:1560   */\n    tag_124:\n        /* \"#utility.yul\":1552:1553   */\n      0x00\n        /* \"#utility.yul\":1549:1550   */\n      dup1\n        /* \"#utility.yul\":1542:1554   */\n      revert\n        /* \"#utility.yul\":1579:2131   */\n    tag_125:\n        /* \"#utility.yul\":1636:1644   */\n      0x00\n        /* \"#utility.yul\":1646:1652   */\n      dup1\n        /* \"#utility.yul\":1696:1699   */\n      dup4\n        /* \"#utility.yul\":1689:1693   */\n      0x1f\n        /* \"#utility.yul\":1681:1687   */\n      dup5\n        /* \"#utility.yul\":1677:1694   */\n      add\n        /* \"#utility.yul\":1673:1700   */\n      slt\n        /* \"#utility.yul\":1663:1785   */\n      tag_165\n      jumpi\n        /* \"#utility.yul\":1704:1783   */\n      tag_166\n      tag_122\n      jump\t// in\n    tag_166:\n        /* \"#utility.yul\":1663:1785   */\n    tag_165:\n        /* \"#utility.yul\":1817:1823   */\n      dup3\n        /* \"#utility.yul\":1804:1824   */\n      calldataload\n        /* \"#utility.yul\":1794:1824   */\n      swap1\n      pop\n        /* \"#utility.yul\":1847:1865   */\n      0xffffffffffffffff\n        /* \"#utility.yul\":1839:1845   */\n      dup2\n        /* \"#utility.yul\":1836:1866   */\n      gt\n        /* \"#utility.yul\":1833:1950   */\n      iszero\n      tag_167\n      jumpi\n        /* \"#utility.yul\":1869:1948   */\n      tag_168\n      tag_123\n      jump\t// in\n    tag_168:\n        /* \"#utility.yul\":1833:1950   */\n    tag_167:\n        /* \"#utility.yul\":1983:1987   */\n      0x20\n        /* \"#utility.yul\":1975:1981   */\n      dup4\n        /* \"#utility.yul\":1971:1988   */\n      add\n        /* \"#utility.yul\":1959:1988   */\n      swap2\n      pop\n        /* \"#utility.yul\":2037:2040   */\n      dup4\n        /* \"#utility.yul\":2029:2033   */\n      0x01\n        /* \"#utility.yul\":2021:2027   */\n      dup3\n        /* \"#utility.yul\":2017:2034   */\n      mul\n        /* \"#utility.yul\":2007:2015   */\n      dup4\n        /* \"#utility.yul\":2003:2035   */\n      add\n        /* \"#utility.yul\":2000:2041   */\n      gt\n        /* \"#utility.yul\":1997:2125   */\n      iszero\n      tag_169\n      jumpi\n        /* \"#utility.yul\":2044:2123   */\n      tag_170\n      tag_124\n      jump\t// in\n    tag_170:\n        /* \"#utility.yul\":1997:2125   */\n    tag_169:\n        /* \"#utility.yul\":1579:2131   */\n      swap3\n      pop\n      swap3\n      swap1\n      pop\n      jump\t// out\n        /* \"#utility.yul\":2137:3100   */\n    tag_13:\n        /* \"#utility.yul\":2234:2240   */\n      0x00\n        /* \"#utility.yul\":2242:2248   */\n      dup1\n        /* \"#utility.yul\":2250:2256   */\n      0x00\n        /* \"#utility.yul\":2258:2264   */\n      dup1\n        /* \"#utility.yul\":2266:2272   */\n      0x00\n        /* \"#utility.yul\":2315:2318   */\n      0x80\n        /* \"#utility.yul\":2303:2312   */\n      dup7\n        /* \"#utility.yul\":2294:2301   */\n      dup9\n        /* \"#utility.yul\":2290:2313   */\n      sub\n        /* \"#utility.yul\":2286:2319   */\n      slt\n        /* \"#utility.yul\":2283:2403   */\n      iszero\n      tag_172\n      jumpi\n        /* \"#utility.yul\":2322:2401   */\n      tag_173\n      tag_113\n      jump\t// in\n    tag_173:\n        /* \"#utility.yul\":2283:2403   */\n    tag_172:\n        /* \"#utility.yul\":2442:2443   */\n      0x00\n        /* \"#utility.yul\":2467:2520   */\n      tag_174\n        /* \"#utility.yul\":2512:2519   */\n      dup9\n        /* \"#utility.yul\":2503:2509   */\n      dup3\n        /* \"#utility.yul\":2492:2501   */\n      dup10\n        /* \"#utility.yul\":2488:2510   */\n      add\n        /* \"#utility.yul\":2467:2520   */\n      tag_118\n      jump\t// in\n    tag_174:\n        /* \"#utility.yul\":2457:2520   */\n      swap6\n      pop\n        /* \"#utility.yul\":2413:2530   */\n      pop\n        /* \"#utility.yul\":2569:2571   */\n      0x20\n        /* \"#utility.yul\":2595:2648   */\n      tag_175\n        /* \"#utility.yul\":2640:2647   */\n      dup9\n        /* \"#utility.yul\":2631:2637   */\n      dup3\n        /* \"#utility.yul\":2620:2629   */\n      dup10\n        /* \"#utility.yul\":2616:2638   */\n      add\n        /* \"#utility.yul\":2595:2648   */\n      tag_118\n      jump\t// in\n    tag_175:\n        /* \"#utility.yul\":2585:2648   */\n      swap5\n      pop\n        /* \"#utility.yul\":2540:2658   */\n      pop\n        /* \"#utility.yul\":2697:2699   */\n      0x40\n        /* \"#utility.yul\":2723:2776   */\n      tag_176\n        /* \"#utility.yul\":2768:2775   */\n      dup9\n        /* \"#utility.yul\":2759:2765   */\n      dup3\n        /* \"#utility.yul\":2748:2757   */\n      dup10\n        /* \"#utility.yul\":2744:2766   */\n      add\n        /* \"#utility.yul\":2723:2776   */\n      tag_121\n      jump\t// in\n    tag_176:\n        /* \"#utility.yul\":2713:2776   */\n      swap4\n      pop\n        /* \"#utility.yul\":2668:2786   */\n      pop\n        /* \"#utility.yul\":2853:2855   */\n      0x60\n        /* \"#utility.yul\":2842:2851   */\n      dup7\n        /* \"#utility.yul\":2838:2856   */\n      add\n        /* \"#utility.yul\":2825:2857   */\n      calldataload\n        /* \"#utility.yul\":2884:2902   */\n      0xffffffffffffffff\n        /* \"#utility.yul\":2876:2882   */\n      dup2\n        /* \"#utility.yul\":2873:2903   */\n      gt\n        /* \"#utility.yul\":2870:2987   */\n      iszero\n      tag_177\n      jumpi\n        /* \"#utility.yul\":2906:2985   */\n      tag_178\n      tag_114\n      jump\t// in\n    tag_178:\n        /* \"#utility.yul\":2870:2987   */\n    tag_177:\n        /* \"#utility.yul\":3019:3083   */\n      tag_179\n        /* \"#utility.yul\":3075:3082   */\n      dup9\n        /* \"#utility.yul\":3066:3072   */\n      dup3\n        /* \"#utility.yul\":3055:3064   */\n      dup10\n        /* \"#utility.yul\":3051:3073   */\n      add\n        /* \"#utility.yul\":3019:3083   */\n      tag_125\n      jump\t// in\n    tag_179:\n        /* \"#utility.yul\":3001:3083   */\n      swap3\n      pop\n      swap3\n      pop\n        /* \"#utility.yul\":2796:3093   */\n      pop\n        /* \"#utility.yul\":2137:3100   */\n      swap3\n      swap6\n      pop\n      swap3\n      swap6\n      swap1\n      swap4\n      pop\n      jump\t// out\n        /* \"#utility.yul\":3106:3255   */\n    tag_126:\n        /* \"#utility.yul\":3142:3149   */\n      0x00\n        /* \"#utility.yul\":3182:3248   */\n      0xffffffff00000000000000000000000000000000000000000000000000000000\n        /* \"#utility.yul\":3175:3180   */\n      dup3\n        /* \"#utility.yul\":3171:3249   */\n      and\n        /* \"#utility.yul\":3160:3249   */\n      swap1\n      pop\n        /* \"#utility.yul\":3106:3255   */\n      swap2\n      swap1\n      pop\n      jump\t// out\n        /* \"#utility.yul\":3261:3376   */\n    tag_127:\n        /* \"#utility.yul\":3346:3369   */\n      tag_182\n        /* \"#utility.yul\":3363:3368   */\n      dup2\n        /* \"#utility.yul\":3346:3369   */\n      tag_126\n      jump\t// in\n    tag_182:\n        /* \"#utility.yul\":3341:3344   */\n      dup3\n        /* \"#utility.yul\":3334:3370   */\n      mstore\n        /* \"#utility.yul\":3261:3376   */\n      pop\n      pop\n      jump\t// out\n        /* \"#utility.yul\":3382:3600   */\n    tag_16:\n        /* \"#utility.yul\":3473:3477   */\n      0x00\n        /* \"#utility.yul\":3511:3513   */\n      0x20\n        /* \"#utility.yul\":3500:3509   */\n      dup3\n        /* \"#utility.yul\":3496:3514   */\n      add\n        /* \"#utility.yul\":3488:3514   */\n      swap1\n      pop\n        /* \"#utility.yul\":3524:3593   */\n      tag_184\n        /* \"#utility.yul\":3590:3591   */\n      0x00\n        /* \"#utility.yul\":3579:3588   */\n      dup4\n        /* \"#utility.yul\":3575:3592   */\n      add\n        /* \"#utility.yul\":3566:3572   */\n      dup5\n        /* \"#utility.yul\":3524:3593   */\n      tag_127\n      jump\t// in\n    tag_184:\n        /* \"#utility.yul\":3382:3600   */\n      swap3\n      swap2\n      pop\n      pop\n      jump\t// out\n        /* \"#utility.yul\":3606:4225   */\n    tag_21:\n        /* \"#utility.yul\":3683:3689   */\n      0x00\n        /* \"#utility.yul\":3691:3697   */\n      dup1\n        /* \"#utility.yul\":3699:3705   */\n      0x00\n        /* \"#utility.yul\":3748:3750   */\n      0x60\n        /* \"#utility.yul\":3736:3745   */\n      dup5\n        /* \"#utility.yul\":3727:3734   */\n      dup7\n        /* \"#utility.yul\":3723:3746   */\n      sub\n        /* \"#utility.yul\":3719:3751   */\n      slt\n        /* \"#utility.yul\":3716:3835   */\n      iszero\n      tag_186\n      jumpi\n        /* \"#utility.yul\":3754:3833   */\n      tag_187\n      tag_113\n      jump\t// in\n    tag_187:\n        /* \"#utility.yul\":3716:3835   */\n    tag_186:\n        /* \"#utility.yul\":3874:3875   */\n      0x00\n        /* \"#utility.yul\":3899:3952   */\n      tag_188\n        /* \"#utility.yul\":3944:3951   */\n      dup7\n        /* \"#utility.yul\":3935:3941   */\n      dup3\n        /* \"#utility.yul\":3924:3933   */\n      dup8\n        /* \"#utility.yul\":3920:3942   */\n      add\n        /* \"#utility.yul\":3899:3952   */\n      tag_118\n      jump\t// in\n    tag_188:\n        /* \"#utility.yul\":3889:3952   */\n      swap4\n      pop\n        /* \"#utility.yul\":3845:3962   */\n      pop\n        /* \"#utility.yul\":4001:4003   */\n      0x20\n        /* \"#utility.yul\":4027:4080   */\n      tag_189\n        /* \"#utility.yul\":4072:4079   */\n      dup7\n        /* \"#utility.yul\":4063:4069   */\n      dup3\n        /* \"#utility.yul\":4052:4061   */\n      dup8\n        /* \"#utility.yul\":4048:4070   */\n      add\n        /* \"#utility.yul\":4027:4080   */\n      tag_121\n      jump\t// in\n    tag_189:\n        /* \"#utility.yul\":4017:4080   */\n      swap3\n      pop\n        /* \"#utility.yul\":3972:4090   */\n      pop\n        /* \"#utility.yul\":4129:4131   */\n      0x40\n        /* \"#utility.yul\":4155:4208   */\n      tag_190\n        /* \"#utility.yul\":4200:4207   */\n      dup7\n        /* \"#utility.yul\":4191:4197   */\n      dup3\n        /* \"#utility.yul\":4180:4189   */\n      dup8\n        /* \"#utility.yul\":4176:4198   */\n      add\n        /* \"#utility.yul\":4155:4208   */\n      tag_121\n      jump\t// in\n    tag_190:\n        /* \"#utility.yul\":4145:4208   */\n      swap2\n      pop\n        /* \"#utility.yul\":4100:4218   */\n      pop\n        /* \"#utility.yul\":3606:4225   */\n      swap3\n      pop\n      swap3\n      pop\n      swap3\n      jump\t// out\n        /* \"#utility.yul\":4231:4705   */\n    tag_26:\n        /* \"#utility.yul\":4299:4305   */\n      0x00\n        /* \"#utility.yul\":4307:4313   */\n      dup1\n        /* \"#utility.yul\":4356:4358   */\n      0x40\n        /* \"#utility.yul\":4344:4353   */\n      dup4\n        /* \"#utility.yul\":4335:4342   */\n      dup6\n        /* \"#utility.yul\":4331:4354   */\n      sub\n        /* \"#utility.yul\":4327:4359   */\n      slt\n        /* \"#utility.yul\":4324:4443   */\n      iszero\n      tag_192\n      jumpi\n        /* \"#utility.yul\":4362:4441   */\n      tag_193\n      tag_113\n      jump\t// in\n    tag_193:\n        /* \"#utility.yul\":4324:4443   */\n    tag_192:\n        /* \"#utility.yul\":4482:4483   */\n      0x00\n        /* \"#utility.yul\":4507:4560   */\n      tag_194\n        /* \"#utility.yul\":4552:4559   */\n      dup6\n        /* \"#utility.yul\":4543:4549   */\n      dup3\n        /* \"#utility.yul\":4532:4541   */\n      dup7\n        /* \"#utility.yul\":4528:4550   */\n      add\n        /* \"#utility.yul\":4507:4560   */\n      tag_118\n      jump\t// in\n    tag_194:\n        /* \"#utility.yul\":4497:4560   */\n      swap3\n      pop\n        /* \"#utility.yul\":4453:4570   */\n      pop\n        /* \"#utility.yul\":4609:4611   */\n      0x20\n        /* \"#utility.yul\":4635:4688   */\n      tag_195\n        /* \"#utility.yul\":4680:4687   */\n      dup6\n        /* \"#utility.yul\":4671:4677   */\n      dup3\n        /* \"#utility.yul\":4660:4669   */\n      dup7\n        /* \"#utility.yul\":4656:4678   */\n      add\n        /* \"#utility.yul\":4635:4688   */\n      tag_121\n      jump\t// in\n    tag_195:\n        /* \"#utility.yul\":4625:4688   */\n      swap2\n      pop\n        /* \"#utility.yul\":4580:4698   */\n      pop\n        /* \"#utility.yul\":4231:4705   */\n      swap3\n      pop\n      swap3\n      swap1\n      pop\n      jump\t// out\n        /* \"#utility.yul\":4711:4829   */\n    tag_128:\n        /* \"#utility.yul\":4798:4822   */\n      tag_197\n        /* \"#utility.yul\":4816:4821   */\n      dup2\n        /* \"#utility.yul\":4798:4822   */\n      tag_116\n      jump\t// in\n    tag_197:\n        /* \"#utility.yul\":4793:4796   */\n      dup3\n        /* \"#utility.yul\":4786:4823   */\n      mstore\n        /* \"#utility.yul\":4711:4829   */\n      pop\n      pop\n      jump\t// out\n        /* \"#utility.yul\":4835:4953   */\n    tag_129:\n        /* \"#utility.yul\":4922:4946   */\n      tag_199\n        /* \"#utility.yul\":4940:4945   */\n      dup2\n        /* \"#utility.yul\":4922:4946   */\n      tag_119\n      jump\t// in\n    tag_199:\n        /* \"#utility.yul\":4917:4920   */\n      dup3\n        /* \"#utility.yul\":4910:4947   */\n      mstore\n        /* \"#utility.yul\":4835:4953   */\n      pop\n      pop\n      jump\t// out\n        /* \"#utility.yul\":4959:5291   */\n    tag_29:\n        /* \"#utility.yul\":5080:5084   */\n      0x00\n        /* \"#utility.yul\":5118:5120   */\n      0x40\n        /* \"#utility.yul\":5107:5116   */\n      dup3\n        /* \"#utility.yul\":5103:5121   */\n      add\n        /* \"#utility.yul\":5095:5121   */\n      swap1\n      pop\n        /* \"#utility.yul\":5131:5202   */\n      tag_201\n        /* \"#utility.yul\":5199:5200   */\n      0x00\n        /* \"#utility.yul\":5188:5197   */\n      dup4\n        /* \"#utility.yul\":5184:5201   */\n      add\n        /* \"#utility.yul\":5175:5181   */\n      dup6\n        /* \"#utility.yul\":5131:5202   */\n      tag_128\n      jump\t// in\n    tag_201:\n        /* \"#utility.yul\":5212:5284   */\n      tag_202\n        /* \"#utility.yul\":5280:5282   */\n      0x20\n        /* \"#utility.yul\":5269:5278   */\n      dup4\n        /* \"#utility.yul\":5265:5283   */\n      add\n        /* \"#utility.yul\":5256:5262   */\n      dup5\n        /* \"#utility.yul\":5212:5284   */\n      tag_129\n      jump\t// in\n    tag_202:\n        /* \"#utility.yul\":4959:5291   */\n      swap4\n      swap3\n      pop\n      pop\n      pop\n      jump\t// out\n        /* \"#utility.yul\":5297:5466   */\n    tag_130:\n        /* \"#utility.yul\":5381:5392   */\n      0x00\n        /* \"#utility.yul\":5415:5421   */\n      dup3\n        /* \"#utility.yul\":5410:5413   */\n      dup3\n        /* \"#utility.yul\":5403:5422   */\n      mstore\n        /* \"#utility.yul\":5455:5459   */\n      0x20\n        /* \"#utility.yul\":5450:5453   */\n      dup3\n        /* \"#utility.yul\":5446:5460   */\n      add\n        /* \"#utility.yul\":5431:5460   */\n      swap1\n      pop\n        /* \"#utility.yul\":5297:5466   */\n      swap3\n      swap2\n      pop\n      pop\n      jump\t// out\n        /* \"#utility.yul\":5472:5635   */\n    tag_131:\n        /* \"#utility.yul\":5612:5627   */\n      0x496e76616c696420707269636500000000000000000000000000000000000000\n        /* \"#utility.yul\":5608:5609   */\n      0x00\n        /* \"#utility.yul\":5600:5606   */\n      dup3\n        /* \"#utility.yul\":5596:5610   */\n      add\n        /* \"#utility.yul\":5589:5628   */\n      mstore\n        /* \"#utility.yul\":5472:5635   */\n      pop\n      jump\t// out\n        /* \"#utility.yul\":5641:6007   */\n    tag_132:\n        /* \"#utility.yul\":5783:5786   */\n      0x00\n        /* \"#utility.yul\":5804:5871   */\n      tag_206\n        /* \"#utility.yul\":5868:5870   */\n      0x0d\n        /* \"#utility.yul\":5863:5866   */\n      dup4\n        /* \"#utility.yul\":5804:5871   */\n      tag_130\n      jump\t// in\n    tag_206:\n        /* \"#utility.yul\":5797:5871   */\n      swap2\n      pop\n        /* \"#utility.yul\":5880:5973   */\n      tag_207\n        /* \"#utility.yul\":5969:5972   */\n      dup3\n        /* \"#utility.yul\":5880:5973   */\n      tag_131\n      jump\t// in\n    tag_207:\n        /* \"#utility.yul\":5998:6000   */\n      0x20\n        /* \"#utility.yul\":5993:5996   */\n      dup3\n        /* \"#utility.yul\":5989:6001   */\n      add\n        /* \"#utility.yul\":5982:6001   */\n      swap1\n      pop\n        /* \"#utility.yul\":5641:6007   */\n      swap2\n      swap1\n      pop\n      jump\t// out\n        /* \"#utility.yul\":6013:6432   */\n    tag_47:\n        /* \"#utility.yul\":6179:6183   */\n      0x00\n        /* \"#utility.yul\":6217:6219   */\n      0x20\n        /* \"#utility.yul\":6206:6215   */\n      dup3\n        /* \"#utility.yul\":6202:6220   */\n      add\n        /* \"#utility.yul\":6194:6220   */\n      swap1\n      pop\n        /* \"#utility.yul\":6266:6275   */\n      dup2\n        /* \"#utility.yul\":6260:6264   */\n      dup2\n        /* \"#utility.yul\":6256:6276   */\n      sub\n        /* \"#utility.yul\":6252:6253   */\n      0x00\n        /* \"#utility.yul\":6241:6250   */\n      dup4\n        /* \"#utility.yul\":6237:6254   */\n      add\n        /* \"#utility.yul\":6230:6277   */\n      mstore\n        /* \"#utility.yul\":6294:6425   */\n      tag_209\n        /* \"#utility.yul\":6420:6424   */\n      dup2\n        /* \"#utility.yul\":6294:6425   */\n      tag_132\n      jump\t// in\n    tag_209:\n        /* \"#utility.yul\":6286:6425   */\n      swap1\n      pop\n        /* \"#utility.yul\":6013:6432   */\n      swap2\n      swap1\n      pop\n      jump\t// out\n        /* \"#utility.yul\":6438:6658   */\n    tag_133:\n        /* \"#utility.yul\":6578:6612   */\n      0x4e6f7420656e6f7567682076616c75652c20696e637265617365207072696365\n        /* \"#utility.yul\":6574:6575   */\n      0x00\n        /* \"#utility.yul\":6566:6572   */\n      dup3\n        /* \"#utility.yul\":6562:6576   */\n      add\n        /* \"#utility.yul\":6555:6613   */\n      mstore\n        /* \"#utility.yul\":6647:6650   */\n      0x2000000000000000000000000000000000000000000000000000000000000000\n        /* \"#utility.yul\":6642:6644   */\n      0x20\n        /* \"#utility.yul\":6634:6640   */\n      dup3\n        /* \"#utility.yul\":6630:6645   */\n      add\n        /* \"#utility.yul\":6623:6651   */\n      mstore\n        /* \"#utility.yul\":6438:6658   */\n      pop\n      jump\t// out\n        /* \"#utility.yul\":6664:7030   */\n    tag_134:\n        /* \"#utility.yul\":6806:6809   */\n      0x00\n        /* \"#utility.yul\":6827:6894   */\n      tag_212\n        /* \"#utility.yul\":6891:6893   */\n      0x21\n        /* \"#utility.yul\":6886:6889   */\n      dup4\n        /* \"#utility.yul\":6827:6894   */\n      tag_130\n      jump\t// in\n    tag_212:\n        /* \"#utility.yul\":6820:6894   */\n      swap2\n      pop\n        /* \"#utility.yul\":6903:6996   */\n      tag_213\n        /* \"#utility.yul\":6992:6995   */\n      dup3\n        /* \"#utility.yul\":6903:6996   */\n      tag_133\n      jump\t// in\n    tag_213:\n        /* \"#utility.yul\":7021:7023   */\n      0x40\n        /* \"#utility.yul\":7016:7019   */\n      dup3\n        /* \"#utility.yul\":7012:7024   */\n      add\n        /* \"#utility.yul\":7005:7024   */\n      swap1\n      pop\n        /* \"#utility.yul\":6664:7030   */\n      swap2\n      swap1\n      pop\n      jump\t// out\n        /* \"#utility.yul\":7036:7455   */\n    tag_50:\n        /* \"#utility.yul\":7202:7206   */\n      0x00\n        /* \"#utility.yul\":7240:7242   */\n      0x20\n        /* \"#utility.yul\":7229:7238   */\n      dup3\n        /* \"#utility.yul\":7225:7243   */\n      add\n        /* \"#utility.yul\":7217:7243   */\n      swap1\n      pop\n        /* \"#utility.yul\":7289:7298   */\n      dup2\n        /* \"#utility.yul\":7283:7287   */\n      dup2\n        /* \"#utility.yul\":7279:7299   */\n      sub\n        /* \"#utility.yul\":7275:7276   */\n      0x00\n        /* \"#utility.yul\":7264:7273   */\n      dup4\n        /* \"#utility.yul\":7260:7277   */\n      add\n        /* \"#utility.yul\":7253:7300   */\n      mstore\n        /* \"#utility.yul\":7317:7448   */\n      tag_215\n        /* \"#utility.yul\":7443:7447   */\n      dup2\n        /* \"#utility.yul\":7317:7448   */\n      tag_134\n      jump\t// in\n    tag_215:\n        /* \"#utility.yul\":7309:7448   */\n      swap1\n      pop\n        /* \"#utility.yul\":7036:7455   */\n      swap2\n      swap1\n      pop\n      jump\t// out\n        /* \"#utility.yul\":7461:7683   */\n    tag_52:\n        /* \"#utility.yul\":7554:7558   */\n      0x00\n        /* \"#utility.yul\":7592:7594   */\n      0x20\n        /* \"#utility.yul\":7581:7590   */\n      dup3\n        /* \"#utility.yul\":7577:7595   */\n      add\n        /* \"#utility.yul\":7569:7595   */\n      swap1\n      pop\n        /* \"#utility.yul\":7605:7676   */\n      tag_217\n        /* \"#utility.yul\":7673:7674   */\n      0x00\n        /* \"#utility.yul\":7662:7671   */\n      dup4\n        /* \"#utility.yul\":7658:7675   */\n      add\n        /* \"#utility.yul\":7649:7655   */\n      dup5\n        /* \"#utility.yul\":7605:7676   */\n      tag_129\n      jump\t// in\n    tag_217:\n        /* \"#utility.yul\":7461:7683   */\n      swap3\n      swap2\n      pop\n      pop\n      jump\t// out\n        /* \"#utility.yul\":7689:7832   */\n    tag_135:\n        /* \"#utility.yul\":7746:7751   */\n      0x00\n        /* \"#utility.yul\":7777:7783   */\n      dup2\n        /* \"#utility.yul\":7771:7784   */\n      mload\n        /* \"#utility.yul\":7762:7784   */\n      swap1\n      pop\n        /* \"#utility.yul\":7793:7826   */\n      tag_219\n        /* \"#utility.yul\":7820:7825   */\n      dup2\n        /* \"#utility.yul\":7793:7826   */\n      tag_117\n      jump\t// in\n    tag_219:\n        /* \"#utility.yul\":7689:7832   */\n      swap3\n      swap2\n      pop\n      pop\n      jump\t// out\n        /* \"#utility.yul\":7838:8189   */\n    tag_56:\n        /* \"#utility.yul\":7908:7914   */\n      0x00\n        /* \"#utility.yul\":7957:7959   */\n      0x20\n        /* \"#utility.yul\":7945:7954   */\n      dup3\n        /* \"#utility.yul\":7936:7943   */\n      dup5\n        /* \"#utility.yul\":7932:7955   */\n      sub\n        /* \"#utility.yul\":7928:7960   */\n      slt\n        /* \"#utility.yul\":7925:8044   */\n      iszero\n      tag_221\n      jumpi\n        /* \"#utility.yul\":7963:8042   */\n      tag_222\n      tag_113\n      jump\t// in\n    tag_222:\n        /* \"#utility.yul\":7925:8044   */\n    tag_221:\n        /* \"#utility.yul\":8083:8084   */\n      0x00\n        /* \"#utility.yul\":8108:8172   */\n      tag_223\n        /* \"#utility.yul\":8164:8171   */\n      dup5\n        /* \"#utility.yul\":8155:8161   */\n      dup3\n        /* \"#utility.yul\":8144:8153   */\n      dup6\n        /* \"#utility.yul\":8140:8162   */\n      add\n        /* \"#utility.yul\":8108:8172   */\n      tag_135\n      jump\t// in\n    tag_223:\n        /* \"#utility.yul\":8098:8172   */\n      swap2\n      pop\n        /* \"#utility.yul\":8054:8182   */\n      pop\n        /* \"#utility.yul\":7838:8189   */\n      swap3\n      swap2\n      pop\n      pop\n      jump\t// out\n        /* \"#utility.yul\":8195:8356   */\n    tag_136:\n        /* \"#utility.yul\":8335:8348   */\n      0x57726f6e67204f72646572000000000000000000000000000000000000000000\n        /* \"#utility.yul\":8331:8332   */\n      0x00\n        /* \"#utility.yul\":8323:8329   */\n      dup3\n        /* \"#utility.yul\":8319:8333   */\n      add\n        /* \"#utility.yul\":8312:8349   */\n      mstore\n        /* \"#utility.yul\":8195:8356   */\n      pop\n      jump\t// out\n        /* \"#utility.yul\":8362:8728   */\n    tag_137:\n        /* \"#utility.yul\":8504:8507   */\n      0x00\n        /* \"#utility.yul\":8525:8592   */\n      tag_226\n        /* \"#utility.yul\":8589:8591   */\n      0x0b\n        /* \"#utility.yul\":8584:8587   */\n      dup4\n        /* \"#utility.yul\":8525:8592   */\n      tag_130\n      jump\t// in\n    tag_226:\n        /* \"#utility.yul\":8518:8592   */\n      swap2\n      pop\n        /* \"#utility.yul\":8601:8694   */\n      tag_227\n        /* \"#utility.yul\":8690:8693   */\n      dup3\n        /* \"#utility.yul\":8601:8694   */\n      tag_136\n      jump\t// in\n    tag_227:\n        /* \"#utility.yul\":8719:8721   */\n      0x20\n        /* \"#utility.yul\":8714:8717   */\n      dup3\n        /* \"#utility.yul\":8710:8722   */\n      add\n        /* \"#utility.yul\":8703:8722   */\n      swap1\n      pop\n        /* \"#utility.yul\":8362:8728   */\n      swap2\n      swap1\n      pop\n      jump\t// out\n        /* \"#utility.yul\":8734:9153   */\n    tag_59:\n        /* \"#utility.yul\":8900:8904   */\n      0x00\n        /* \"#utility.yul\":8938:8940   */\n      0x20\n        /* \"#utility.yul\":8927:8936   */\n      dup3\n        /* \"#utility.yul\":8923:8941   */\n      add\n        /* \"#utility.yul\":8915:8941   */\n      swap1\n      pop\n        /* \"#utility.yul\":8987:8996   */\n      dup2\n        /* \"#utility.yul\":8981:8985   */\n      dup2\n        /* \"#utility.yul\":8977:8997   */\n      sub\n        /* \"#utility.yul\":8973:8974   */\n      0x00\n        /* \"#utility.yul\":8962:8971   */\n      dup4\n        /* \"#utility.yul\":8958:8975   */\n      add\n        /* \"#utility.yul\":8951:8998   */\n      mstore\n        /* \"#utility.yul\":9015:9146   */\n      tag_229\n        /* \"#utility.yul\":9141:9145   */\n      dup2\n        /* \"#utility.yul\":9015:9146   */\n      tag_137\n      jump\t// in\n    tag_229:\n        /* \"#utility.yul\":9007:9146   */\n      swap1\n      pop\n        /* \"#utility.yul\":8734:9153   */\n      swap2\n      swap1\n      pop\n      jump\t// out\n        /* \"#utility.yul\":9159:9601   */\n    tag_61:\n        /* \"#utility.yul\":9308:9312   */\n      0x00\n        /* \"#utility.yul\":9346:9348   */\n      0x60\n        /* \"#utility.yul\":9335:9344   */\n      dup3\n        /* \"#utility.yul\":9331:9349   */\n      add\n        /* \"#utility.yul\":9323:9349   */\n      swap1\n      pop\n        /* \"#utility.yul\":9359:9430   */\n      tag_231\n        /* \"#utility.yul\":9427:9428   */\n      0x00\n        /* \"#utility.yul\":9416:9425   */\n      dup4\n        /* \"#utility.yul\":9412:9429   */\n      add\n        /* \"#utility.yul\":9403:9409   */\n      dup7\n        /* \"#utility.yul\":9359:9430   */\n      tag_128\n      jump\t// in\n    tag_231:\n        /* \"#utility.yul\":9440:9512   */\n      tag_232\n        /* \"#utility.yul\":9508:9510   */\n      0x20\n        /* \"#utility.yul\":9497:9506   */\n      dup4\n        /* \"#utility.yul\":9493:9511   */\n      add\n        /* \"#utility.yul\":9484:9490   */\n      dup6\n        /* \"#utility.yul\":9440:9512   */\n      tag_128\n      jump\t// in\n    tag_232:\n        /* \"#utility.yul\":9522:9594   */\n      tag_233\n        /* \"#utility.yul\":9590:9592   */\n      0x40\n        /* \"#utility.yul\":9579:9588   */\n      dup4\n        /* \"#utility.yul\":9575:9593   */\n      add\n        /* \"#utility.yul\":9566:9572   */\n      dup5\n        /* \"#utility.yul\":9522:9594   */\n      tag_129\n      jump\t// in\n    tag_233:\n        /* \"#utility.yul\":9159:9601   */\n      swap5\n      swap4\n      pop\n      pop\n      pop\n      pop\n      jump\t// out\n        /* \"#utility.yul\":9607:9787   */\n    tag_138:\n        /* \"#utility.yul\":9655:9732   */\n      0x4e487b7100000000000000000000000000000000000000000000000000000000\n        /* \"#utility.yul\":9652:9653   */\n      0x00\n        /* \"#utility.yul\":9645:9733   */\n      mstore\n        /* \"#utility.yul\":9752:9756   */\n      0x11\n        /* \"#utility.yul\":9749:9750   */\n      0x04\n        /* \"#utility.yul\":9742:9757   */\n      mstore\n        /* \"#utility.yul\":9776:9780   */\n      0x24\n        /* \"#utility.yul\":9773:9774   */\n      0x00\n        /* \"#utility.yul\":9766:9781   */\n      revert\n        /* \"#utility.yul\":9793:9987   */\n    tag_68:\n        /* \"#utility.yul\":9833:9837   */\n      0x00\n        /* \"#utility.yul\":9853:9873   */\n      tag_236\n        /* \"#utility.yul\":9871:9872   */\n      dup3\n        /* \"#utility.yul\":9853:9873   */\n      tag_119\n      jump\t// in\n    tag_236:\n        /* \"#utility.yul\":9848:9873   */\n      swap2\n      pop\n        /* \"#utility.yul\":9887:9907   */\n      tag_237\n        /* \"#utility.yul\":9905:9906   */\n      dup4\n        /* \"#utility.yul\":9887:9907   */\n      tag_119\n      jump\t// in\n    tag_237:\n        /* \"#utility.yul\":9882:9907   */\n      swap3\n      pop\n        /* \"#utility.yul\":9931:9932   */\n      dup3\n        /* \"#utility.yul\":9928:9929   */\n      dup3\n        /* \"#utility.yul\":9924:9933   */\n      sub\n        /* \"#utility.yul\":9916:9933   */\n      swap1\n      pop\n        /* \"#utility.yul\":9955:9956   */\n      dup2\n        /* \"#utility.yul\":9949:9953   */\n      dup2\n        /* \"#utility.yul\":9946:9957   */\n      gt\n        /* \"#utility.yul\":9943:9980   */\n      iszero\n      tag_238\n      jumpi\n        /* \"#utility.yul\":9960:9978   */\n      tag_239\n      tag_138\n      jump\t// in\n    tag_239:\n        /* \"#utility.yul\":9943:9980   */\n    tag_238:\n        /* \"#utility.yul\":9793:9987   */\n      swap3\n      swap2\n      pop\n      pop\n      jump\t// out\n        /* \"#utility.yul\":9993:10156   */\n    tag_139:\n        /* \"#utility.yul\":10133:10148   */\n      0x6e6f7420746865206f776e657200000000000000000000000000000000000000\n        /* \"#utility.yul\":10129:10130   */\n      0x00\n        /* \"#utility.yul\":10121:10127   */\n      dup3\n        /* \"#utility.yul\":10117:10131   */\n      add\n        /* \"#utility.yul\":10110:10149   */\n      mstore\n        /* \"#utility.yul\":9993:10156   */\n      pop\n      jump\t// out\n        /* \"#utility.yul\":10162:10528   */\n    tag_140:\n        /* \"#utility.yul\":10304:10307   */\n      0x00\n        /* \"#utility.yul\":10325:10392   */\n      tag_242\n        /* \"#utility.yul\":10389:10391   */\n      0x0d\n        /* \"#utility.yul\":10384:10387   */\n      dup4\n        /* \"#utility.yul\":10325:10392   */\n      tag_130\n      jump\t// in\n    tag_242:\n        /* \"#utility.yul\":10318:10392   */\n      swap2\n      pop\n        /* \"#utility.yul\":10401:10494   */\n      tag_243\n        /* \"#utility.yul\":10490:10493   */\n      dup3\n        /* \"#utility.yul\":10401:10494   */\n      tag_139\n      jump\t// in\n    tag_243:\n        /* \"#utility.yul\":10519:10521   */\n      0x20\n        /* \"#utility.yul\":10514:10517   */\n      dup3\n        /* \"#utility.yul\":10510:10522   */\n      add\n        /* \"#utility.yul\":10503:10522   */\n      swap1\n      pop\n        /* \"#utility.yul\":10162:10528   */\n      swap2\n      swap1\n      pop\n      jump\t// out\n        /* \"#utility.yul\":10534:10953   */\n    tag_77:\n        /* \"#utility.yul\":10700:10704   */\n      0x00\n        /* \"#utility.yul\":10738:10740   */\n      0x20\n        /* \"#utility.yul\":10727:10736   */\n      dup3\n        /* \"#utility.yul\":10723:10741   */\n      add\n        /* \"#utility.yul\":10715:10741   */\n      swap1\n      pop\n        /* \"#utility.yul\":10787:10796   */\n      dup2\n        /* \"#utility.yul\":10781:10785   */\n      dup2\n        /* \"#utility.yul\":10777:10797   */\n      sub\n        /* \"#utility.yul\":10773:10774   */\n      0x00\n        /* \"#utility.yul\":10762:10771   */\n      dup4\n        /* \"#utility.yul\":10758:10775   */\n      add\n        /* \"#utility.yul\":10751:10798   */\n      mstore\n        /* \"#utility.yul\":10815:10946   */\n      tag_245\n        /* \"#utility.yul\":10941:10945   */\n      dup2\n        /* \"#utility.yul\":10815:10946   */\n      tag_140\n      jump\t// in\n    tag_245:\n        /* \"#utility.yul\":10807:10946   */\n      swap1\n      pop\n        /* \"#utility.yul\":10534:10953   */\n      swap2\n      swap1\n      pop\n      jump\t// out\n        /* \"#utility.yul\":10959:11122   */\n    tag_141:\n        /* \"#utility.yul\":11099:11114   */\n      0x5365656b20417070726f76616c00000000000000000000000000000000000000\n        /* \"#utility.yul\":11095:11096   */\n      0x00\n        /* \"#utility.yul\":11087:11093   */\n      dup3\n        /* \"#utility.yul\":11083:11097   */\n      add\n        /* \"#utility.yul\":11076:11115   */\n      mstore\n        /* \"#utility.yul\":10959:11122   */\n      pop\n      jump\t// out\n        /* \"#utility.yul\":11128:11494   */\n    tag_142:\n        /* \"#utility.yul\":11270:11273   */\n      0x00\n        /* \"#utility.yul\":11291:11358   */\n      tag_248\n        /* \"#utility.yul\":11355:11357   */\n      0x0d\n        /* \"#utility.yul\":11350:11353   */\n      dup4\n        /* \"#utility.yul\":11291:11358   */\n      tag_130\n      jump\t// in\n    tag_248:\n        /* \"#utility.yul\":11284:11358   */\n      swap2\n      pop\n        /* \"#utility.yul\":11367:11460   */\n      tag_249\n        /* \"#utility.yul\":11456:11459   */\n      dup3\n        /* \"#utility.yul\":11367:11460   */\n      tag_141\n      jump\t// in\n    tag_249:\n        /* \"#utility.yul\":11485:11487   */\n      0x20\n        /* \"#utility.yul\":11480:11483   */\n      dup3\n        /* \"#utility.yul\":11476:11488   */\n      add\n        /* \"#utility.yul\":11469:11488   */\n      swap1\n      pop\n        /* \"#utility.yul\":11128:11494   */\n      swap2\n      swap1\n      pop\n      jump\t// out\n        /* \"#utility.yul\":11500:11919   */\n    tag_93:\n        /* \"#utility.yul\":11666:11670   */\n      0x00\n        /* \"#utility.yul\":11704:11706   */\n      0x20\n        /* \"#utility.yul\":11693:11702   */\n      dup3\n        /* \"#utility.yul\":11689:11707   */\n      add\n        /* \"#utility.yul\":11681:11707   */\n      swap1\n      pop\n        /* \"#utility.yul\":11753:11762   */\n      dup2\n        /* \"#utility.yul\":11747:11751   */\n      dup2\n        /* \"#utility.yul\":11743:11763   */\n      sub\n        /* \"#utility.yul\":11739:11740   */\n      0x00\n        /* \"#utility.yul\":11728:11737   */\n      dup4\n        /* \"#utility.yul\":11724:11741   */\n      add\n        /* \"#utility.yul\":11717:11764   */\n      mstore\n        /* \"#utility.yul\":11781:11912   */\n      tag_251\n        /* \"#utility.yul\":11907:11911   */\n      dup2\n        /* \"#utility.yul\":11781:11912   */\n      tag_142\n      jump\t// in\n    tag_251:\n        /* \"#utility.yul\":11773:11912   */\n      swap1\n      pop\n        /* \"#utility.yul\":11500:11919   */\n      swap2\n      swap1\n      pop\n      jump\t// out\n\n    auxdata: 0xa26469706673582212206ba86abcb794fa9358503c079cc9fada37d53a70bf9ec36f560f9e51c85a298264736f6c634300081a0033\n}\n",
				"bytecode": {
					"linkReferences": {},
					"object": "6080604052348015600e575f80fd5b506113aa8061001c5f395ff3fe60806040526004361061006f575f3560e01c8063ba5f4fb21161004d578063ba5f4fb2146100d5578063d09b6d4314610112578063dda342bb1461013a578063eac449d9146101625761006f565b8063150b7a0214610073578063552079dc146100af57806398968f15146100b9575b5f80fd5b34801561007e575f80fd5b5061009960048036038101906100949190610e9f565b61018a565b6040516100a69190610f5d565b60405180910390f35b6100b761019e565b005b6100d360048036038101906100ce9190610f76565b6101a0565b005b3480156100e0575f80fd5b506100fb60048036038101906100f69190610fc6565b610572565b604051610109929190611022565b60405180910390f35b34801561011d575f80fd5b5061013860048036038101906101339190610f76565b6105bb565b005b348015610145575f80fd5b50610160600480360381019061015b9190610f76565b61083a565b005b34801561016d575f80fd5b5061018860048036038101906101839190610fc6565b610a9d565b005b5f63150b7a0260e01b905095945050505050565b565b5f805f8573ffffffffffffffffffffffffffffffffffffffff1673ffffffffffffffffffffffffffffffffffffffff1681526020019081526020015f205f8481526020019081526020015f2090505f8211610230576040517f08c379a0000000000000000000000000000000000000000000000000000000008152600401610227906110a3565b60405180910390fd5b8060010154341015610277576040517f08c379a000000000000000000000000000000000000000000000000000000000815260040161026e90611131565b60405180910390fd5b5f8490503073ffffffffffffffffffffffffffffffffffffffff168173ffffffffffffffffffffffffffffffffffffffff16636352211e866040518263ffffffff1660e01b81526004016102cb919061114f565b602060405180830381865afa1580156102e6573d5f803e3d5ffd5b505050506040513d601f19601f8201168201806040525081019061030a919061117c565b73ffffffffffffffffffffffffffffffffffffffff1614610360576040517f08c379a0000000000000000000000000000000000000000000000000000000008152600401610357906111f1565b60405180910390fd5b8073ffffffffffffffffffffffffffffffffffffffff166342842e0e3033876040518463ffffffff1660e01b815260040161039d9392919061120f565b5f604051808303815f87803b1580156103b4575f80fd5b505af11580156103c6573d5f803e3d5ffd5b50505050815f015f9054906101000a900473ffffffffffffffffffffffffffffffffffffffff1673ffffffffffffffffffffffffffffffffffffffff166108fc836001015490811502906040515f60405180830381858888f19350505050158015610433573d5f803e3d5ffd5b503373ffffffffffffffffffffffffffffffffffffffff166108fc83600101543461045e9190611271565b90811502906040515f60405180830381858888f19350505050158015610486573d5f803e3d5ffd5b505f808673ffffffffffffffffffffffffffffffffffffffff1673ffffffffffffffffffffffffffffffffffffffff1681526020019081526020015f205f8581526020019081526020015f205f8082015f6101000a81549073ffffffffffffffffffffffffffffffffffffffff0219169055600182015f90555050838573ffffffffffffffffffffffffffffffffffffffff163373ffffffffffffffffffffffffffffffffffffffff167f46661dab58311a6838247afecbee792192b4f27fc8b3e7168c66bc55ec2e404e8560010154604051610563919061114f565b60405180910390a45050505050565b5f602052815f5260405f20602052805f5260405f205f9150915050805f015f9054906101000a900473ffffffffffffffffffffffffffffffffffffffff16908060010154905082565b5f81116105fd576040517f08c379a00000000000000000000000000000000000000000000000000000000081526004016105f4906110a3565b60405180910390fd5b5f805f8573ffffffffffffffffffffffffffffffffffffffff1673ffffffffffffffffffffffffffffffffffffffff1681526020019081526020015f205f8481526020019081526020015f2090503373ffffffffffffffffffffffffffffffffffffffff16815f015f9054906101000a900473ffffffffffffffffffffffffffffffffffffffff1673ffffffffffffffffffffffffffffffffffffffff16146106db576040517f08c379a00000000000000000000000000000000000000000000000000000000081526004016106d2906112ee565b60405180910390fd5b5f8490503073ffffffffffffffffffffffffffffffffffffffff168173ffffffffffffffffffffffffffffffffffffffff16636352211e866040518263ffffffff1660e01b815260040161072f919061114f565b602060405180830381865afa15801561074a573d5f803e3d5ffd5b505050506040513d601f19601f8201168201806040525081019061076e919061117c565b73ffffffffffffffffffffffffffffffffffffffff16146107c4576040517f08c379a00000000000000000000000000000000000000000000000000000000081526004016107bb906111f1565b60405180910390fd5b828260010181905550838573ffffffffffffffffffffffffffffffffffffffff163373ffffffffffffffffffffffffffffffffffffffff167fb7f0ca7cd5b24651672216886135b99ff40342bcf549009a4c6fc74f059fb9a08660405161082b919061114f565b60405180910390a45050505050565b5f8390505f8211610849575f80fd5b3073ffffffffffffffffffffffffffffffffffffffff168173ffffffffffffffffffffffffffffffffffffffff1663081812fc856040518263ffffffff1660e01b8152600401610899919061114f565b602060405180830381865afa1580156108b4573d5f803e3d5ffd5b505050506040513d601f19601f820116820180604052508101906108d8919061117c565b73ffffffffffffffffffffffffffffffffffffffff161461092e576040517f08c379a000000000000000000000000000000000000000000000000000000000815260040161092590611356565b60405180910390fd5b5f805f8673ffffffffffffffffffffffffffffffffffffffff1673ffffffffffffffffffffffffffffffffffffffff1681526020019081526020015f205f8581526020019081526020015f20905033815f015f6101000a81548173ffffffffffffffffffffffffffffffffffffffff021916908373ffffffffffffffffffffffffffffffffffffffff1602179055508281600101819055508173ffffffffffffffffffffffffffffffffffffffff166342842e0e3330876040518463ffffffff1660e01b8152600401610a039392919061120f565b5f604051808303815f87803b158015610a1a575f80fd5b505af1158015610a2c573d5f803e3d5ffd5b50505050838573ffffffffffffffffffffffffffffffffffffffff163373ffffffffffffffffffffffffffffffffffffffff167fedbdf022944a3291f4b30148903a84720506f48e10478ec5812e5caf30e1fab086604051610a8e919061114f565b60405180910390a45050505050565b5f805f8473ffffffffffffffffffffffffffffffffffffffff1673ffffffffffffffffffffffffffffffffffffffff1681526020019081526020015f205f8381526020019081526020015f2090503373ffffffffffffffffffffffffffffffffffffffff16815f015f9054906101000a900473ffffffffffffffffffffffffffffffffffffffff1673ffffffffffffffffffffffffffffffffffffffff1614610b7b576040517f08c379a0000000000000000000000000000000000000000000000000000000008152600401610b72906112ee565b60405180910390fd5b5f8390503073ffffffffffffffffffffffffffffffffffffffff168173ffffffffffffffffffffffffffffffffffffffff16636352211e856040518263ffffffff1660e01b8152600401610bcf919061114f565b602060405180830381865afa158015610bea573d5f803e3d5ffd5b505050506040513d601f19601f82011682018060405250810190610c0e919061117c565b73ffffffffffffffffffffffffffffffffffffffff1614610c64576040517f08c379a0000000000000000000000000000000000000000000000000000000008152600401610c5b906111f1565b60405180910390fd5b8073ffffffffffffffffffffffffffffffffffffffff166342842e0e3033866040518463ffffffff1660e01b8152600401610ca19392919061120f565b5f604051808303815f87803b158015610cb8575f80fd5b505af1158015610cca573d5f803e3d5ffd5b505050505f808573ffffffffffffffffffffffffffffffffffffffff1673ffffffffffffffffffffffffffffffffffffffff1681526020019081526020015f205f8481526020019081526020015f205f8082015f6101000a81549073ffffffffffffffffffffffffffffffffffffffff0219169055600182015f90555050828473ffffffffffffffffffffffffffffffffffffffff163373ffffffffffffffffffffffffffffffffffffffff167fb698e31a2abee5824d0d7bcfd2339aead7f9e9ae413fba50bf554ff3fa470b7b60405160405180910390a450505050565b5f80fd5b5f80fd5b5f73ffffffffffffffffffffffffffffffffffffffff82169050919050565b5f610dda82610db1565b9050919050565b610dea81610dd0565b8114610df4575f80fd5b50565b5f81359050610e0581610de1565b92915050565b5f819050919050565b610e1d81610e0b565b8114610e27575f80fd5b50565b5f81359050610e3881610e14565b92915050565b5f80fd5b5f80fd5b5f80fd5b5f8083601f840112610e5f57610e5e610e3e565b5b8235905067ffffffffffffffff811115610e7c57610e7b610e42565b5b602083019150836001820283011115610e9857610e97610e46565b5b9250929050565b5f805f805f60808688031215610eb857610eb7610da9565b5b5f610ec588828901610df7565b9550506020610ed688828901610df7565b9450506040610ee788828901610e2a565b935050606086013567ffffffffffffffff811115610f0857610f07610dad565b5b610f1488828901610e4a565b92509250509295509295909350565b5f7fffffffff0000000000000000000000000000000000000000000000000000000082169050919050565b610f5781610f23565b82525050565b5f602082019050610f705f830184610f4e565b92915050565b5f805f60608486031215610f8d57610f8c610da9565b5b5f610f9a86828701610df7565b9350506020610fab86828701610e2a565b9250506040610fbc86828701610e2a565b9150509250925092565b5f8060408385031215610fdc57610fdb610da9565b5b5f610fe985828601610df7565b9250506020610ffa85828601610e2a565b9150509250929050565b61100d81610dd0565b82525050565b61101c81610e0b565b82525050565b5f6040820190506110355f830185611004565b6110426020830184611013565b9392505050565b5f82825260208201905092915050565b7f496e76616c6964207072696365000000000000000000000000000000000000005f82015250565b5f61108d600d83611049565b915061109882611059565b602082019050919050565b5f6020820190508181035f8301526110ba81611081565b9050919050565b7f4e6f7420656e6f7567682076616c75652c20696e6372656173652070726963655f8201527f2000000000000000000000000000000000000000000000000000000000000000602082015250565b5f61111b602183611049565b9150611126826110c1565b604082019050919050565b5f6020820190508181035f8301526111488161110f565b9050919050565b5f6020820190506111625f830184611013565b92915050565b5f8151905061117681610de1565b92915050565b5f6020828403121561119157611190610da9565b5b5f61119e84828501611168565b91505092915050565b7f57726f6e67204f726465720000000000000000000000000000000000000000005f82015250565b5f6111db600b83611049565b91506111e6826111a7565b602082019050919050565b5f6020820190508181035f830152611208816111cf565b9050919050565b5f6060820190506112225f830186611004565b61122f6020830185611004565b61123c6040830184611013565b949350505050565b7f4e487b71000000000000000000000000000000000000000000000000000000005f52601160045260245ffd5b5f61127b82610e0b565b915061128683610e0b565b925082820390508181111561129e5761129d611244565b5b92915050565b7f6e6f7420746865206f776e6572000000000000000000000000000000000000005f82015250565b5f6112d8600d83611049565b91506112e3826112a4565b602082019050919050565b5f6020820190508181035f830152611305816112cc565b9050919050565b7f5365656b20417070726f76616c000000000000000000000000000000000000005f82015250565b5f611340600d83611049565b915061134b8261130c565b602082019050919050565b5f6020820190508181035f83015261136d81611334565b905091905056fea26469706673582212206ba86abcb794fa9358503c079cc9fada37d53a70bf9ec36f560f9e51c85a298264736f6c634300081a0033",
					"opcodes": "PUSH1 0x80 PUSH1 0x40 MSTORE CALLVALUE DUP1 ISZERO PUSH1 0xE JUMPI PUSH0 DUP1 REVERT JUMPDEST POP PUSH2 0x13AA DUP1 PUSH2 0x1C PUSH0 CODECOPY PUSH0 RETURN INVALID PUSH1 0x80 PUSH1 0x40 MSTORE PUSH1 0x4 CALLDATASIZE LT PUSH2 0x6F JUMPI PUSH0 CALLDATALOAD PUSH1 0xE0 SHR DUP1 PUSH4 0xBA5F4FB2 GT PUSH2 0x4D JUMPI DUP1 PUSH4 0xBA5F4FB2 EQ PUSH2 0xD5 JUMPI DUP1 PUSH4 0xD09B6D43 EQ PUSH2 0x112 JUMPI DUP1 PUSH4 0xDDA342BB EQ PUSH2 0x13A JUMPI DUP1 PUSH4 0xEAC449D9 EQ PUSH2 0x162 JUMPI PUSH2 0x6F JUMP JUMPDEST DUP1 PUSH4 0x150B7A02 EQ PUSH2 0x73 JUMPI DUP1 PUSH4 0x552079DC EQ PUSH2 0xAF JUMPI DUP1 PUSH4 0x98968F15 EQ PUSH2 0xB9 JUMPI JUMPDEST PUSH0 DUP1 REVERT JUMPDEST CALLVALUE DUP1 ISZERO PUSH2 0x7E JUMPI PUSH0 DUP1 REVERT JUMPDEST POP PUSH2 0x99 PUSH1 0x4 DUP1 CALLDATASIZE SUB DUP2 ADD SWAP1 PUSH2 0x94 SWAP2 SWAP1 PUSH2 0xE9F JUMP JUMPDEST PUSH2 0x18A JUMP JUMPDEST PUSH1 0x40 MLOAD PUSH2 0xA6 SWAP2 SWAP1 PUSH2 0xF5D JUMP JUMPDEST PUSH1 0x40 MLOAD DUP1 SWAP2 SUB SWAP1 RETURN JUMPDEST PUSH2 0xB7 PUSH2 0x19E JUMP JUMPDEST STOP JUMPDEST PUSH2 0xD3 PUSH1 0x4 DUP1 CALLDATASIZE SUB DUP2 ADD SWAP1 PUSH2 0xCE SWAP2 SWAP1 PUSH2 0xF76 JUMP JUMPDEST PUSH2 0x1A0 JUMP JUMPDEST STOP JUMPDEST CALLVALUE DUP1 ISZERO PUSH2 0xE0 JUMPI PUSH0 DUP1 REVERT JUMPDEST POP PUSH2 0xFB PUSH1 0x4 DUP1 CALLDATASIZE SUB DUP2 ADD SWAP1 PUSH2 0xF6 SWAP2 SWAP1 PUSH2 0xFC6 JUMP JUMPDEST PUSH2 0x572 JUMP JUMPDEST PUSH1 0x40 MLOAD PUSH2 0x109 SWAP3 SWAP2 SWAP1 PUSH2 0x1022 JUMP JUMPDEST PUSH1 0x40 MLOAD DUP1 SWAP2 SUB SWAP1 RETURN JUMPDEST CALLVALUE DUP1 ISZERO PUSH2 0x11D JUMPI PUSH0 DUP1 REVERT JUMPDEST POP PUSH2 0x138 PUSH1 0x4 DUP1 CALLDATASIZE SUB DUP2 ADD SWAP1 PUSH2 0x133 SWAP2 SWAP1 PUSH2 0xF76 JUMP JUMPDEST PUSH2 0x5BB JUMP JUMPDEST STOP JUMPDEST CALLVALUE DUP1 ISZERO PUSH2 0x145 JUMPI PUSH0 DUP1 REVERT JUMPDEST POP PUSH2 0x160 PUSH1 0x4 DUP1 CALLDATASIZE SUB DUP2 ADD SWAP1 PUSH2 0x15B SWAP2 SWAP1 PUSH2 0xF76 JUMP JUMPDEST PUSH2 0x83A JUMP JUMPDEST STOP JUMPDEST CALLVALUE DUP1 ISZERO PUSH2 0x16D JUMPI PUSH0 DUP1 REVERT JUMPDEST POP PUSH2 0x188 PUSH1 0x4 DUP1 CALLDATASIZE SUB DUP2 ADD SWAP1 PUSH2 0x183 SWAP2 SWAP1 PUSH2 0xFC6 JUMP JUMPDEST PUSH2 0xA9D JUMP JUMPDEST STOP JUMPDEST PUSH0 PUSH4 0x150B7A02 PUSH1 0xE0 SHL SWAP1 POP SWAP6 SWAP5 POP POP POP POP POP JUMP JUMPDEST JUMP JUMPDEST PUSH0 DUP1 PUSH0 DUP6 PUSH20 0xFFFFFFFFFFFFFFFFFFFFFFFFFFFFFFFFFFFFFFFF AND PUSH20 0xFFFFFFFFFFFFFFFFFFFFFFFFFFFFFFFFFFFFFFFF AND DUP2 MSTORE PUSH1 0x20 ADD SWAP1 DUP2 MSTORE PUSH1 0x20 ADD PUSH0 KECCAK256 PUSH0 DUP5 DUP2 MSTORE PUSH1 0x20 ADD SWAP1 DUP2 MSTORE PUSH1 0x20 ADD PUSH0 KECCAK256 SWAP1 POP PUSH0 DUP3 GT PUSH2 0x230 JUMPI PUSH1 0x40 MLOAD PUSH32 0x8C379A000000000000000000000000000000000000000000000000000000000 DUP2 MSTORE PUSH1 0x4 ADD PUSH2 0x227 SWAP1 PUSH2 0x10A3 JUMP JUMPDEST PUSH1 0x40 MLOAD DUP1 SWAP2 SUB SWAP1 REVERT JUMPDEST DUP1 PUSH1 0x1 ADD SLOAD CALLVALUE LT ISZERO PUSH2 0x277 JUMPI PUSH1 0x40 MLOAD PUSH32 0x8C379A000000000000000000000000000000000000000000000000000000000 DUP2 MSTORE PUSH1 0x4 ADD PUSH2 0x26E SWAP1 PUSH2 0x1131 JUMP JUMPDEST PUSH1 0x40 MLOAD DUP1 SWAP2 SUB SWAP1 REVERT JUMPDEST PUSH0 DUP5 SWAP1 POP ADDRESS PUSH20 0xFFFFFFFFFFFFFFFFFFFFFFFFFFFFFFFFFFFFFFFF AND DUP2 PUSH20 0xFFFFFFFFFFFFFFFFFFFFFFFFFFFFFFFFFFFFFFFF AND PUSH4 0x6352211E DUP7 PUSH1 0x40 MLOAD DUP3 PUSH4 0xFFFFFFFF AND PUSH1 0xE0 SHL DUP2 MSTORE PUSH1 0x4 ADD PUSH2 0x2CB SWAP2 SWAP1 PUSH2 0x114F JUMP JUMPDEST PUSH1 0x20 PUSH1 0x40 MLOAD DUP1 DUP4 SUB DUP2 DUP7 GAS STATICCALL ISZERO DUP1 ISZERO PUSH2 0x2E6 JUMPI RETURNDATASIZE PUSH0 DUP1 RETURNDATACOPY RETURNDATASIZE PUSH0 REVERT JUMPDEST POP POP POP POP PUSH1 0x40 MLOAD RETURNDATASIZE PUSH1 0x1F NOT PUSH1 0x1F DUP3 ADD AND DUP3 ADD DUP1 PUSH1 0x40 MSTORE POP DUP2 ADD SWAP1 PUSH2 0x30A SWAP2 SWAP1 PUSH2 0x117C JUMP JUMPDEST PUSH20 0xFFFFFFFFFFFFFFFFFFFFFFFFFFFFFFFFFFFFFFFF AND EQ PUSH2 0x360 JUMPI PUSH1 0x40 MLOAD PUSH32 0x8C379A000000000000000000000000000000000000000000000000000000000 DUP2 MSTORE PUSH1 0x4 ADD PUSH2 0x357 SWAP1 PUSH2 0x11F1 JUMP JUMPDEST PUSH1 0x40 MLOAD DUP1 SWAP2 SUB SWAP1 REVERT JUMPDEST DUP1 PUSH20 0xFFFFFFFFFFFFFFFFFFFFFFFFFFFFFFFFFFFFFFFF AND PUSH4 0x42842E0E ADDRESS CALLER DUP8 PUSH1 0x40 MLOAD DUP5 PUSH4 0xFFFFFFFF AND PUSH1 0xE0 SHL DUP2 MSTORE PUSH1 0x4 ADD PUSH2 0x39D SWAP4 SWAP3 SWAP2 SWAP1 PUSH2 0x120F JUMP JUMPDEST PUSH0 PUSH1 0x40 MLOAD DUP1 DUP4 SUB DUP2 PUSH0 DUP8 DUP1 EXTCODESIZE ISZERO DUP1 ISZERO PUSH2 0x3B4 JUMPI PUSH0 DUP1 REVERT JUMPDEST POP GAS CALL ISZERO DUP1 ISZERO PUSH2 0x3C6 JUMPI RETURNDATASIZE PUSH0 DUP1 RETURNDATACOPY RETURNDATASIZE PUSH0 REVERT JUMPDEST POP POP POP POP DUP2 PUSH0 ADD PUSH0 SWAP1 SLOAD SWAP1 PUSH2 0x100 EXP SWAP1 DIV PUSH20 0xFFFFFFFFFFFFFFFFFFFFFFFFFFFFFFFFFFFFFFFF AND PUSH20 0xFFFFFFFFFFFFFFFFFFFFFFFFFFFFFFFFFFFFFFFF AND PUSH2 0x8FC DUP4 PUSH1 0x1 ADD SLOAD SWAP1 DUP2 ISZERO MUL SWAP1 PUSH1 0x40 MLOAD PUSH0 PUSH1 0x40 MLOAD DUP1 DUP4 SUB DUP2 DUP6 DUP9 DUP9 CALL SWAP4 POP POP POP POP ISZERO DUP1 ISZERO PUSH2 0x433 JUMPI RETURNDATASIZE PUSH0 DUP1 RETURNDATACOPY RETURNDATASIZE PUSH0 REVERT JUMPDEST POP CALLER PUSH20 0xFFFFFFFFFFFFFFFFFFFFFFFFFFFFFFFFFFFFFFFF AND PUSH2 0x8FC DUP4 PUSH1 0x1 ADD SLOAD CALLVALUE PUSH2 0x45E SWAP2 SWAP1 PUSH2 0x1271 JUMP JUMPDEST SWAP1 DUP2 ISZERO MUL SWAP1 PUSH1 0x40 MLOAD PUSH0 PUSH1 0x40 MLOAD DUP1 DUP4 SUB DUP2 DUP6 DUP9 DUP9 CALL SWAP4 POP POP POP POP ISZERO DUP1 ISZERO PUSH2 0x486 JUMPI RETURNDATASIZE PUSH0 DUP1 RETURNDATACOPY RETURNDATASIZE PUSH0 REVERT JUMPDEST POP PUSH0 DUP1 DUP7 PUSH20 0xFFFFFFFFFFFFFFFFFFFFFFFFFFFFFFFFFFFFFFFF AND PUSH20 0xFFFFFFFFFFFFFFFFFFFFFFFFFFFFFFFFFFFFFFFF AND DUP2 MSTORE PUSH1 0x20 ADD SWAP1 DUP2 MSTORE PUSH1 0x20 ADD PUSH0 KECCAK256 PUSH0 DUP6 DUP2 MSTORE PUSH1 0x20 ADD SWAP1 DUP2 MSTORE PUSH1 0x20 ADD PUSH0 KECCAK256 PUSH0 DUP1 DUP3 ADD PUSH0 PUSH2 0x100 EXP DUP2 SLOAD SWAP1 PUSH20 0xFFFFFFFFFFFFFFFFFFFFFFFFFFFFFFFFFFFFFFFF MUL NOT AND SWAP1 SSTORE PUSH1 0x1 DUP3 ADD PUSH0 SWAP1 SSTORE POP POP DUP4 DUP6 PUSH20 0xFFFFFFFFFFFFFFFFFFFFFFFFFFFFFFFFFFFFFFFF AND CALLER PUSH20 0xFFFFFFFFFFFFFFFFFFFFFFFFFFFFFFFFFFFFFFFF AND PUSH32 0x46661DAB58311A6838247AFECBEE792192B4F27FC8B3E7168C66BC55EC2E404E DUP6 PUSH1 0x1 ADD SLOAD PUSH1 0x40 MLOAD PUSH2 0x563 SWAP2 SWAP1 PUSH2 0x114F JUMP JUMPDEST PUSH1 0x40 MLOAD DUP1 SWAP2 SUB SWAP1 LOG4 POP POP POP POP POP JUMP JUMPDEST PUSH0 PUSH1 0x20 MSTORE DUP2 PUSH0 MSTORE PUSH1 0x40 PUSH0 KECCAK256 PUSH1 0x20 MSTORE DUP1 PUSH0 MSTORE PUSH1 0x40 PUSH0 KECCAK256 PUSH0 SWAP2 POP SWAP2 POP POP DUP1 PUSH0 ADD PUSH0 SWAP1 SLOAD SWAP1 PUSH2 0x100 EXP SWAP1 DIV PUSH20 0xFFFFFFFFFFFFFFFFFFFFFFFFFFFFFFFFFFFFFFFF AND SWAP1 DUP1 PUSH1 0x1 ADD SLOAD SWAP1 POP DUP3 JUMP JUMPDEST PUSH0 DUP2 GT PUSH2 0x5FD JUMPI PUSH1 0x40 MLOAD PUSH32 0x8C379A000000000000000000000000000000000000000000000000000000000 DUP2 MSTORE PUSH1 0x4 ADD PUSH2 0x5F4 SWAP1 PUSH2 0x10A3 JUMP JUMPDEST PUSH1 0x40 MLOAD DUP1 SWAP2 SUB SWAP1 REVERT JUMPDEST PUSH0 DUP1 PUSH0 DUP6 PUSH20 0xFFFFFFFFFFFFFFFFFFFFFFFFFFFFFFFFFFFFFFFF AND PUSH20 0xFFFFFFFFFFFFFFFFFFFFFFFFFFFFFFFFFFFFFFFF AND DUP2 MSTORE PUSH1 0x20 ADD SWAP1 DUP2 MSTORE PUSH1 0x20 ADD PUSH0 KECCAK256 PUSH0 DUP5 DUP2 MSTORE PUSH1 0x20 ADD SWAP1 DUP2 MSTORE PUSH1 0x20 ADD PUSH0 KECCAK256 SWAP1 POP CALLER PUSH20 0xFFFFFFFFFFFFFFFFFFFFFFFFFFFFFFFFFFFFFFFF AND DUP2 PUSH0 ADD PUSH0 SWAP1 SLOAD SWAP1 PUSH2 0x100 EXP SWAP1 DIV PUSH20 0xFFFFFFFFFFFFFFFFFFFFFFFFFFFFFFFFFFFFFFFF AND PUSH20 0xFFFFFFFFFFFFFFFFFFFFFFFFFFFFFFFFFFFFFFFF AND EQ PUSH2 0x6DB JUMPI PUSH1 0x40 MLOAD PUSH32 0x8C379A000000000000000000000000000000000000000000000000000000000 DUP2 MSTORE PUSH1 0x4 ADD PUSH2 0x6D2 SWAP1 PUSH2 0x12EE JUMP JUMPDEST PUSH1 0x40 MLOAD DUP1 SWAP2 SUB SWAP1 REVERT JUMPDEST PUSH0 DUP5 SWAP1 POP ADDRESS PUSH20 0xFFFFFFFFFFFFFFFFFFFFFFFFFFFFFFFFFFFFFFFF AND DUP2 PUSH20 0xFFFFFFFFFFFFFFFFFFFFFFFFFFFFFFFFFFFFFFFF AND PUSH4 0x6352211E DUP7 PUSH1 0x40 MLOAD DUP3 PUSH4 0xFFFFFFFF AND PUSH1 0xE0 SHL DUP2 MSTORE PUSH1 0x4 ADD PUSH2 0x72F SWAP2 SWAP1 PUSH2 0x114F JUMP JUMPDEST PUSH1 0x20 PUSH1 0x40 MLOAD DUP1 DUP4 SUB DUP2 DUP7 GAS STATICCALL ISZERO DUP1 ISZERO PUSH2 0x74A JUMPI RETURNDATASIZE PUSH0 DUP1 RETURNDATACOPY RETURNDATASIZE PUSH0 REVERT JUMPDEST POP POP POP POP PUSH1 0x40 MLOAD RETURNDATASIZE PUSH1 0x1F NOT PUSH1 0x1F DUP3 ADD AND DUP3 ADD DUP1 PUSH1 0x40 MSTORE POP DUP2 ADD SWAP1 PUSH2 0x76E SWAP2 SWAP1 PUSH2 0x117C JUMP JUMPDEST PUSH20 0xFFFFFFFFFFFFFFFFFFFFFFFFFFFFFFFFFFFFFFFF AND EQ PUSH2 0x7C4 JUMPI PUSH1 0x40 MLOAD PUSH32 0x8C379A000000000000000000000000000000000000000000000000000000000 DUP2 MSTORE PUSH1 0x4 ADD PUSH2 0x7BB SWAP1 PUSH2 0x11F1 JUMP JUMPDEST PUSH1 0x40 MLOAD DUP1 SWAP2 SUB SWAP1 REVERT JUMPDEST DUP3 DUP3 PUSH1 0x1 ADD DUP2 SWAP1 SSTORE POP DUP4 DUP6 PUSH20 0xFFFFFFFFFFFFFFFFFFFFFFFFFFFFFFFFFFFFFFFF AND CALLER PUSH20 0xFFFFFFFFFFFFFFFFFFFFFFFFFFFFFFFFFFFFFFFF AND PUSH32 0xB7F0CA7CD5B24651672216886135B99FF40342BCF549009A4C6FC74F059FB9A0 DUP7 PUSH1 0x40 MLOAD PUSH2 0x82B SWAP2 SWAP1 PUSH2 0x114F JUMP JUMPDEST PUSH1 0x40 MLOAD DUP1 SWAP2 SUB SWAP1 LOG4 POP POP POP POP POP JUMP JUMPDEST PUSH0 DUP4 SWAP1 POP PUSH0 DUP3 GT PUSH2 0x849 JUMPI PUSH0 DUP1 REVERT JUMPDEST ADDRESS PUSH20 0xFFFFFFFFFFFFFFFFFFFFFFFFFFFFFFFFFFFFFFFF AND DUP2 PUSH20 0xFFFFFFFFFFFFFFFFFFFFFFFFFFFFFFFFFFFFFFFF AND PUSH4 0x81812FC DUP6 PUSH1 0x40 MLOAD DUP3 PUSH4 0xFFFFFFFF AND PUSH1 0xE0 SHL DUP2 MSTORE PUSH1 0x4 ADD PUSH2 0x899 SWAP2 SWAP1 PUSH2 0x114F JUMP JUMPDEST PUSH1 0x20 PUSH1 0x40 MLOAD DUP1 DUP4 SUB DUP2 DUP7 GAS STATICCALL ISZERO DUP1 ISZERO PUSH2 0x8B4 JUMPI RETURNDATASIZE PUSH0 DUP1 RETURNDATACOPY RETURNDATASIZE PUSH0 REVERT JUMPDEST POP POP POP POP PUSH1 0x40 MLOAD RETURNDATASIZE PUSH1 0x1F NOT PUSH1 0x1F DUP3 ADD AND DUP3 ADD DUP1 PUSH1 0x40 MSTORE POP DUP2 ADD SWAP1 PUSH2 0x8D8 SWAP2 SWAP1 PUSH2 0x117C JUMP JUMPDEST PUSH20 0xFFFFFFFFFFFFFFFFFFFFFFFFFFFFFFFFFFFFFFFF AND EQ PUSH2 0x92E JUMPI PUSH1 0x40 MLOAD PUSH32 0x8C379A000000000000000000000000000000000000000000000000000000000 DUP2 MSTORE PUSH1 0x4 ADD PUSH2 0x925 SWAP1 PUSH2 0x1356 JUMP JUMPDEST PUSH1 0x40 MLOAD DUP1 SWAP2 SUB SWAP1 REVERT JUMPDEST PUSH0 DUP1 PUSH0 DUP7 PUSH20 0xFFFFFFFFFFFFFFFFFFFFFFFFFFFFFFFFFFFFFFFF AND PUSH20 0xFFFFFFFFFFFFFFFFFFFFFFFFFFFFFFFFFFFFFFFF AND DUP2 MSTORE PUSH1 0x20 ADD SWAP1 DUP2 MSTORE PUSH1 0x20 ADD PUSH0 KECCAK256 PUSH0 DUP6 DUP2 MSTORE PUSH1 0x20 ADD SWAP1 DUP2 MSTORE PUSH1 0x20 ADD PUSH0 KECCAK256 SWAP1 POP CALLER DUP2 PUSH0 ADD PUSH0 PUSH2 0x100 EXP DUP2 SLOAD DUP2 PUSH20 0xFFFFFFFFFFFFFFFFFFFFFFFFFFFFFFFFFFFFFFFF MUL NOT AND SWAP1 DUP4 PUSH20 0xFFFFFFFFFFFFFFFFFFFFFFFFFFFFFFFFFFFFFFFF AND MUL OR SWAP1 SSTORE POP DUP3 DUP2 PUSH1 0x1 ADD DUP2 SWAP1 SSTORE POP DUP2 PUSH20 0xFFFFFFFFFFFFFFFFFFFFFFFFFFFFFFFFFFFFFFFF AND PUSH4 0x42842E0E CALLER ADDRESS DUP8 PUSH1 0x40 MLOAD DUP5 PUSH4 0xFFFFFFFF AND PUSH1 0xE0 SHL DUP2 MSTORE PUSH1 0x4 ADD PUSH2 0xA03 SWAP4 SWAP3 SWAP2 SWAP1 PUSH2 0x120F JUMP JUMPDEST PUSH0 PUSH1 0x40 MLOAD DUP1 DUP4 SUB DUP2 PUSH0 DUP8 DUP1 EXTCODESIZE ISZERO DUP1 ISZERO PUSH2 0xA1A JUMPI PUSH0 DUP1 REVERT JUMPDEST POP GAS CALL ISZERO DUP1 ISZERO PUSH2 0xA2C JUMPI RETURNDATASIZE PUSH0 DUP1 RETURNDATACOPY RETURNDATASIZE PUSH0 REVERT JUMPDEST POP POP POP POP DUP4 DUP6 PUSH20 0xFFFFFFFFFFFFFFFFFFFFFFFFFFFFFFFFFFFFFFFF AND CALLER PUSH20 0xFFFFFFFFFFFFFFFFFFFFFFFFFFFFFFFFFFFFFFFF AND PUSH32 0xEDBDF022944A3291F4B30148903A84720506F48E10478EC5812E5CAF30E1FAB0 DUP7 PUSH1 0x40 MLOAD PUSH2 0xA8E SWAP2 SWAP1 PUSH2 0x114F JUMP JUMPDEST PUSH1 0x40 MLOAD DUP1 SWAP2 SUB SWAP1 LOG4 POP POP POP POP POP JUMP JUMPDEST PUSH0 DUP1 PUSH0 DUP5 PUSH20 0xFFFFFFFFFFFFFFFFFFFFFFFFFFFFFFFFFFFFFFFF AND PUSH20 0xFFFFFFFFFFFFFFFFFFFFFFFFFFFFFFFFFFFFFFFF AND DUP2 MSTORE PUSH1 0x20 ADD SWAP1 DUP2 MSTORE PUSH1 0x20 ADD PUSH0 KECCAK256 PUSH0 DUP4 DUP2 MSTORE PUSH1 0x20 ADD SWAP1 DUP2 MSTORE PUSH1 0x20 ADD PUSH0 KECCAK256 SWAP1 POP CALLER PUSH20 0xFFFFFFFFFFFFFFFFFFFFFFFFFFFFFFFFFFFFFFFF AND DUP2 PUSH0 ADD PUSH0 SWAP1 SLOAD SWAP1 PUSH2 0x100 EXP SWAP1 DIV PUSH20 0xFFFFFFFFFFFFFFFFFFFFFFFFFFFFFFFFFFFFFFFF AND PUSH20 0xFFFFFFFFFFFFFFFFFFFFFFFFFFFFFFFFFFFFFFFF AND EQ PUSH2 0xB7B JUMPI PUSH1 0x40 MLOAD PUSH32 0x8C379A000000000000000000000000000000000000000000000000000000000 DUP2 MSTORE PUSH1 0x4 ADD PUSH2 0xB72 SWAP1 PUSH2 0x12EE JUMP JUMPDEST PUSH1 0x40 MLOAD DUP1 SWAP2 SUB SWAP1 REVERT JUMPDEST PUSH0 DUP4 SWAP1 POP ADDRESS PUSH20 0xFFFFFFFFFFFFFFFFFFFFFFFFFFFFFFFFFFFFFFFF AND DUP2 PUSH20 0xFFFFFFFFFFFFFFFFFFFFFFFFFFFFFFFFFFFFFFFF AND PUSH4 0x6352211E DUP6 PUSH1 0x40 MLOAD DUP3 PUSH4 0xFFFFFFFF AND PUSH1 0xE0 SHL DUP2 MSTORE PUSH1 0x4 ADD PUSH2 0xBCF SWAP2 SWAP1 PUSH2 0x114F JUMP JUMPDEST PUSH1 0x20 PUSH1 0x40 MLOAD DUP1 DUP4 SUB DUP2 DUP7 GAS STATICCALL ISZERO DUP1 ISZERO PUSH2 0xBEA JUMPI RETURNDATASIZE PUSH0 DUP1 RETURNDATACOPY RETURNDATASIZE PUSH0 REVERT JUMPDEST POP POP POP POP PUSH1 0x40 MLOAD RETURNDATASIZE PUSH1 0x1F NOT PUSH1 0x1F DUP3 ADD AND DUP3 ADD DUP1 PUSH1 0x40 MSTORE POP DUP2 ADD SWAP1 PUSH2 0xC0E SWAP2 SWAP1 PUSH2 0x117C JUMP JUMPDEST PUSH20 0xFFFFFFFFFFFFFFFFFFFFFFFFFFFFFFFFFFFFFFFF AND EQ PUSH2 0xC64 JUMPI PUSH1 0x40 MLOAD PUSH32 0x8C379A000000000000000000000000000000000000000000000000000000000 DUP2 MSTORE PUSH1 0x4 ADD PUSH2 0xC5B SWAP1 PUSH2 0x11F1 JUMP JUMPDEST PUSH1 0x40 MLOAD DUP1 SWAP2 SUB SWAP1 REVERT JUMPDEST DUP1 PUSH20 0xFFFFFFFFFFFFFFFFFFFFFFFFFFFFFFFFFFFFFFFF AND PUSH4 0x42842E0E ADDRESS CALLER DUP7 PUSH1 0x40 MLOAD DUP5 PUSH4 0xFFFFFFFF AND PUSH1 0xE0 SHL DUP2 MSTORE PUSH1 0x4 ADD PUSH2 0xCA1 SWAP4 SWAP3 SWAP2 SWAP1 PUSH2 0x120F JUMP JUMPDEST PUSH0 PUSH1 0x40 MLOAD DUP1 DUP4 SUB DUP2 PUSH0 DUP8 DUP1 EXTCODESIZE ISZERO DUP1 ISZERO PUSH2 0xCB8 JUMPI PUSH0 DUP1 REVERT JUMPDEST POP GAS CALL ISZERO DUP1 ISZERO PUSH2 0xCCA JUMPI RETURNDATASIZE PUSH0 DUP1 RETURNDATACOPY RETURNDATASIZE PUSH0 REVERT JUMPDEST POP POP POP POP PUSH0 DUP1 DUP6 PUSH20 0xFFFFFFFFFFFFFFFFFFFFFFFFFFFFFFFFFFFFFFFF AND PUSH20 0xFFFFFFFFFFFFFFFFFFFFFFFFFFFFFFFFFFFFFFFF AND DUP2 MSTORE PUSH1 0x20 ADD SWAP1 DUP2 MSTORE PUSH1 0x20 ADD PUSH0 KECCAK256 PUSH0 DUP5 DUP2 MSTORE PUSH1 0x20 ADD SWAP1 DUP2 MSTORE PUSH1 0x20 ADD PUSH0 KECCAK256 PUSH0 DUP1 DUP3 ADD PUSH0 PUSH2 0x100 EXP DUP2 SLOAD SWAP1 PUSH20 0xFFFFFFFFFFFFFFFFFFFFFFFFFFFFFFFFFFFFFFFF MUL NOT AND SWAP1 SSTORE PUSH1 0x1 DUP3 ADD PUSH0 SWAP1 SSTORE POP POP DUP3 DUP5 PUSH20 0xFFFFFFFFFFFFFFFFFFFFFFFFFFFFFFFFFFFFFFFF AND CALLER PUSH20 0xFFFFFFFFFFFFFFFFFFFFFFFFFFFFFFFFFFFFFFFF AND PUSH32 0xB698E31A2ABEE5824D0D7BCFD2339AEAD7F9E9AE413FBA50BF554FF3FA470B7B PUSH1 0x40 MLOAD PUSH1 0x40 MLOAD DUP1 SWAP2 SUB SWAP1 LOG4 POP POP POP POP JUMP JUMPDEST PUSH0 DUP1 REVERT JUMPDEST PUSH0 DUP1 REVERT JUMPDEST PUSH0 PUSH20 0xFFFFFFFFFFFFFFFFFFFFFFFFFFFFFFFFFFFFFFFF DUP3 AND SWAP1 POP SWAP2 SWAP1 POP JUMP JUMPDEST PUSH0 PUSH2 0xDDA DUP3 PUSH2 0xDB1 JUMP JUMPDEST SWAP1 POP SWAP2 SWAP1 POP JUMP JUMPDEST PUSH2 0xDEA DUP2 PUSH2 0xDD0 JUMP JUMPDEST DUP2 EQ PUSH2 0xDF4 JUMPI PUSH0 DUP1 REVERT JUMPDEST POP JUMP JUMPDEST PUSH0 DUP2 CALLDATALOAD SWAP1 POP PUSH2 0xE05 DUP2 PUSH2 0xDE1 JUMP JUMPDEST SWAP3 SWAP2 POP POP JUMP JUMPDEST PUSH0 DUP2 SWAP1 POP SWAP2 SWAP1 POP JUMP JUMPDEST PUSH2 0xE1D DUP2 PUSH2 0xE0B JUMP JUMPDEST DUP2 EQ PUSH2 0xE27 JUMPI PUSH0 DUP1 REVERT JUMPDEST POP JUMP JUMPDEST PUSH0 DUP2 CALLDATALOAD SWAP1 POP PUSH2 0xE38 DUP2 PUSH2 0xE14 JUMP JUMPDEST SWAP3 SWAP2 POP POP JUMP JUMPDEST PUSH0 DUP1 REVERT JUMPDEST PUSH0 DUP1 REVERT JUMPDEST PUSH0 DUP1 REVERT JUMPDEST PUSH0 DUP1 DUP4 PUSH1 0x1F DUP5 ADD SLT PUSH2 0xE5F JUMPI PUSH2 0xE5E PUSH2 0xE3E JUMP JUMPDEST JUMPDEST DUP3 CALLDATALOAD SWAP1 POP PUSH8 0xFFFFFFFFFFFFFFFF DUP2 GT ISZERO PUSH2 0xE7C JUMPI PUSH2 0xE7B PUSH2 0xE42 JUMP JUMPDEST JUMPDEST PUSH1 0x20 DUP4 ADD SWAP2 POP DUP4 PUSH1 0x1 DUP3 MUL DUP4 ADD GT ISZERO PUSH2 0xE98 JUMPI PUSH2 0xE97 PUSH2 0xE46 JUMP JUMPDEST JUMPDEST SWAP3 POP SWAP3 SWAP1 POP JUMP JUMPDEST PUSH0 DUP1 PUSH0 DUP1 PUSH0 PUSH1 0x80 DUP7 DUP9 SUB SLT ISZERO PUSH2 0xEB8 JUMPI PUSH2 0xEB7 PUSH2 0xDA9 JUMP JUMPDEST JUMPDEST PUSH0 PUSH2 0xEC5 DUP9 DUP3 DUP10 ADD PUSH2 0xDF7 JUMP JUMPDEST SWAP6 POP POP PUSH1 0x20 PUSH2 0xED6 DUP9 DUP3 DUP10 ADD PUSH2 0xDF7 JUMP JUMPDEST SWAP5 POP POP PUSH1 0x40 PUSH2 0xEE7 DUP9 DUP3 DUP10 ADD PUSH2 0xE2A JUMP JUMPDEST SWAP4 POP POP PUSH1 0x60 DUP7 ADD CALLDATALOAD PUSH8 0xFFFFFFFFFFFFFFFF DUP2 GT ISZERO PUSH2 0xF08 JUMPI PUSH2 0xF07 PUSH2 0xDAD JUMP JUMPDEST JUMPDEST PUSH2 0xF14 DUP9 DUP3 DUP10 ADD PUSH2 0xE4A JUMP JUMPDEST SWAP3 POP SWAP3 POP POP SWAP3 SWAP6 POP SWAP3 SWAP6 SWAP1 SWAP4 POP JUMP JUMPDEST PUSH0 PUSH32 0xFFFFFFFF00000000000000000000000000000000000000000000000000000000 DUP3 AND SWAP1 POP SWAP2 SWAP1 POP JUMP JUMPDEST PUSH2 0xF57 DUP2 PUSH2 0xF23 JUMP JUMPDEST DUP3 MSTORE POP POP JUMP JUMPDEST PUSH0 PUSH1 0x20 DUP3 ADD SWAP1 POP PUSH2 0xF70 PUSH0 DUP4 ADD DUP5 PUSH2 0xF4E JUMP JUMPDEST SWAP3 SWAP2 POP POP JUMP JUMPDEST PUSH0 DUP1 PUSH0 PUSH1 0x60 DUP5 DUP7 SUB SLT ISZERO PUSH2 0xF8D JUMPI PUSH2 0xF8C PUSH2 0xDA9 JUMP JUMPDEST JUMPDEST PUSH0 PUSH2 0xF9A DUP7 DUP3 DUP8 ADD PUSH2 0xDF7 JUMP JUMPDEST SWAP4 POP POP PUSH1 0x20 PUSH2 0xFAB DUP7 DUP3 DUP8 ADD PUSH2 0xE2A JUMP JUMPDEST SWAP3 POP POP PUSH1 0x40 PUSH2 0xFBC DUP7 DUP3 DUP8 ADD PUSH2 0xE2A JUMP JUMPDEST SWAP2 POP POP SWAP3 POP SWAP3 POP SWAP3 JUMP JUMPDEST PUSH0 DUP1 PUSH1 0x40 DUP4 DUP6 SUB SLT ISZERO PUSH2 0xFDC JUMPI PUSH2 0xFDB PUSH2 0xDA9 JUMP JUMPDEST JUMPDEST PUSH0 PUSH2 0xFE9 DUP6 DUP3 DUP7 ADD PUSH2 0xDF7 JUMP JUMPDEST SWAP3 POP POP PUSH1 0x20 PUSH2 0xFFA DUP6 DUP3 DUP7 ADD PUSH2 0xE2A JUMP JUMPDEST SWAP2 POP POP SWAP3 POP SWAP3 SWAP1 POP JUMP JUMPDEST PUSH2 0x100D DUP2 PUSH2 0xDD0 JUMP JUMPDEST DUP3 MSTORE POP POP JUMP JUMPDEST PUSH2 0x101C DUP2 PUSH2 0xE0B JUMP JUMPDEST DUP3 MSTORE POP POP JUMP JUMPDEST PUSH0 PUSH1 0x40 DUP3 ADD SWAP1 POP PUSH2 0x1035 PUSH0 DUP4 ADD DUP6 PUSH2 0x1004 JUMP JUMPDEST PUSH2 0x1042 PUSH1 0x20 DUP4 ADD DUP5 PUSH2 0x1013 JUMP JUMPDEST SWAP4 SWAP3 POP POP POP JUMP JUMPDEST PUSH0 DUP3 DUP3 MSTORE PUSH1 0x20 DUP3 ADD SWAP1 POP SWAP3 SWAP2 POP POP JUMP JUMPDEST PUSH32 0x496E76616C696420707269636500000000000000000000000000000000000000 PUSH0 DUP3 ADD MSTORE POP JUMP JUMPDEST PUSH0 PUSH2 0x108D PUSH1 0xD DUP4 PUSH2 0x1049 JUMP JUMPDEST SWAP2 POP PUSH2 0x1098 DUP3 PUSH2 0x1059 JUMP JUMPDEST PUSH1 0x20 DUP3 ADD SWAP1 POP SWAP2 SWAP1 POP JUMP JUMPDEST PUSH0 PUSH1 0x20 DUP3 ADD SWAP1 POP DUP2 DUP2 SUB PUSH0 DUP4 ADD MSTORE PUSH2 0x10BA DUP2 PUSH2 0x1081 JUMP JUMPDEST SWAP1 POP SWAP2 SWAP1 POP JUMP JUMPDEST PUSH32 0x4E6F7420656E6F7567682076616C75652C20696E637265617365207072696365 PUSH0 DUP3 ADD MSTORE PUSH32 0x2000000000000000000000000000000000000000000000000000000000000000 PUSH1 0x20 DUP3 ADD MSTORE POP JUMP JUMPDEST PUSH0 PUSH2 0x111B PUSH1 0x21 DUP4 PUSH2 0x1049 JUMP JUMPDEST SWAP2 POP PUSH2 0x1126 DUP3 PUSH2 0x10C1 JUMP JUMPDEST PUSH1 0x40 DUP3 ADD SWAP1 POP SWAP2 SWAP1 POP JUMP JUMPDEST PUSH0 PUSH1 0x20 DUP3 ADD SWAP1 POP DUP2 DUP2 SUB PUSH0 DUP4 ADD MSTORE PUSH2 0x1148 DUP2 PUSH2 0x110F JUMP JUMPDEST SWAP1 POP SWAP2 SWAP1 POP JUMP JUMPDEST PUSH0 PUSH1 0x20 DUP3 ADD SWAP1 POP PUSH2 0x1162 PUSH0 DUP4 ADD DUP5 PUSH2 0x1013 JUMP JUMPDEST SWAP3 SWAP2 POP POP JUMP JUMPDEST PUSH0 DUP2 MLOAD SWAP1 POP PUSH2 0x1176 DUP2 PUSH2 0xDE1 JUMP JUMPDEST SWAP3 SWAP2 POP POP JUMP JUMPDEST PUSH0 PUSH1 0x20 DUP3 DUP5 SUB SLT ISZERO PUSH2 0x1191 JUMPI PUSH2 0x1190 PUSH2 0xDA9 JUMP JUMPDEST JUMPDEST PUSH0 PUSH2 0x119E DUP5 DUP3 DUP6 ADD PUSH2 0x1168 JUMP JUMPDEST SWAP2 POP POP SWAP3 SWAP2 POP POP JUMP JUMPDEST PUSH32 0x57726F6E67204F72646572000000000000000000000000000000000000000000 PUSH0 DUP3 ADD MSTORE POP JUMP JUMPDEST PUSH0 PUSH2 0x11DB PUSH1 0xB DUP4 PUSH2 0x1049 JUMP JUMPDEST SWAP2 POP PUSH2 0x11E6 DUP3 PUSH2 0x11A7 JUMP JUMPDEST PUSH1 0x20 DUP3 ADD SWAP1 POP SWAP2 SWAP1 POP JUMP JUMPDEST PUSH0 PUSH1 0x20 DUP3 ADD SWAP1 POP DUP2 DUP2 SUB PUSH0 DUP4 ADD MSTORE PUSH2 0x1208 DUP2 PUSH2 0x11CF JUMP JUMPDEST SWAP1 POP SWAP2 SWAP1 POP JUMP JUMPDEST PUSH0 PUSH1 0x60 DUP3 ADD SWAP1 POP PUSH2 0x1222 PUSH0 DUP4 ADD DUP7 PUSH2 0x1004 JUMP JUMPDEST PUSH2 0x122F PUSH1 0x20 DUP4 ADD DUP6 PUSH2 0x1004 JUMP JUMPDEST PUSH2 0x123C PUSH1 0x40 DUP4 ADD DUP5 PUSH2 0x1013 JUMP JUMPDEST SWAP5 SWAP4 POP POP POP POP JUMP JUMPDEST PUSH32 0x4E487B7100000000000000000000000000000000000000000000000000000000 PUSH0 MSTORE PUSH1 0x11 PUSH1 0x4 MSTORE PUSH1 0x24 PUSH0 REVERT JUMPDEST PUSH0 PUSH2 0x127B DUP3 PUSH2 0xE0B JUMP JUMPDEST SWAP2 POP PUSH2 0x1286 DUP4 PUSH2 0xE0B JUMP JUMPDEST SWAP3 POP DUP3 DUP3 SUB SWAP1 POP DUP2 DUP2 GT ISZERO PUSH2 0x129E JUMPI PUSH2 0x129D PUSH2 0x1244 JUMP JUMPDEST JUMPDEST SWAP3 SWAP2 POP POP JUMP JUMPDEST PUSH32 0x6E6F7420746865206F776E657200000000000000000000000000000000000000 PUSH0 DUP3 ADD MSTORE POP JUMP JUMPDEST PUSH0 PUSH2 0x12D8 PUSH1 0xD DUP4 PUSH2 0x1049 JUMP JUMPDEST SWAP2 POP PUSH2 0x12E3 DUP3 PUSH2 0x12A4 JUMP JUMPDEST PUSH1 0x20 DUP3 ADD SWAP1 POP SWAP2 SWAP1 POP JUMP JUMPDEST PUSH0 PUSH1 0x20 DUP3 ADD SWAP1 POP DUP2 DUP2 SUB PUSH0 DUP4 ADD MSTORE PUSH2 0x1305 DUP2 PUSH2 0x12CC JUMP JUMPDEST SWAP1 POP SWAP2 SWAP1 POP JUMP JUMPDEST PUSH32 0x5365656B20417070726F76616C00000000000000000000000000000000000000 PUSH0 DUP3 ADD MSTORE POP JUMP JUMPDEST PUSH0 PUSH2 0x1340 PUSH1 0xD DUP4 PUSH2 0x1049 JUMP JUMPDEST SWAP2 POP PUSH2 0x134B DUP3 PUSH2 0x130C JUMP JUMPDEST PUSH1 0x20 DUP3 ADD SWAP1 POP SWAP2 SWAP1 POP JUMP JUMPDEST PUSH0 PUSH1 0x20 DUP3 ADD SWAP1 POP DUP2 DUP2 SUB PUSH0 DUP4 ADD MSTORE PUSH2 0x136D DUP2 PUSH2 0x1334 JUMP JUMPDEST SWAP1 POP SWAP2 SWAP1 POP JUMP INVALID LOG2 PUSH5 0x6970667358 0x22 SLT KECCAK256 PUSH12 0xA86ABCB794FA9358503C079C 0xC9 STATICCALL 0xDA CALLDATACOPY 0xD5 GASPRICE PUSH17 0xBF9EC36F560F9E51C85A298264736F6C63 NUMBER STOP ADDMOD BYTE STOP CALLER "
				},
				"gasEstimates": {
					"creation": {
						"codeDepositCost": "1006800",
						"executionCost": "1045",
						"totalCost": "1007845"
					},
					"external": {
						"fallback()": "142",
						"list(address,uint256,uint256)": "infinite",
						"nftList(address,uint256)": "infinite",
						"onERC721Received(address,address,uint256,bytes)": "infinite",
						"purchase(address,uint256,uint256)": "infinite",
						"revoke(address,uint256)": "infinite",
						"update(address,uint256,uint256)": "infinite"
					}
				},
				"methodIdentifiers": {
					"fallback()": "552079dc",
					"list(address,uint256,uint256)": "dda342bb",
					"nftList(address,uint256)": "ba5f4fb2",
					"onERC721Received(address,address,uint256,bytes)": "150b7a02",
					"purchase(address,uint256,uint256)": "98968f15",
					"revoke(address,uint256)": "eac449d9",
					"update(address,uint256,uint256)": "d09b6d43"
				}
			},
			"storageLayout": {
				"storage": [
					{
						"astId": 2873,
						"contract": "contracts/NFTSwap.sol:NFTSwap",
						"label": "nftList",
						"offset": 0,
						"slot": "0",
						"type": "t_mapping(t_address,t_mapping(t_uint256,t_struct(Order)2866_storage))"
					}
				],
				"types": {
					"t_address": {
						"encoding": "inplace",
						"label": "address",
						"numberOfBytes": "20"
					},
					"t_mapping(t_address,t_mapping(t_uint256,t_struct(Order)2866_storage))": {
						"encoding": "mapping",
						"key": "t_address",
						"label": "mapping(address => mapping(uint256 => struct NFTSwap.Order))",
						"numberOfBytes": "32",
						"value": "t_mapping(t_uint256,t_struct(Order)2866_storage)"
					},
					"t_mapping(t_uint256,t_struct(Order)2866_storage)": {
						"encoding": "mapping",
						"key": "t_uint256",
						"label": "mapping(uint256 => struct NFTSwap.Order)",
						"numberOfBytes": "32",
						"value": "t_struct(Order)2866_storage"
					},
					"t_struct(Order)2866_storage": {
						"encoding": "inplace",
						"label": "struct NFTSwap.Order",
						"members": [
							{
								"astId": 2863,
								"contract": "contracts/NFTSwap.sol:NFTSwap",
								"label": "owner",
								"offset": 0,
								"slot": "0",
								"type": "t_address"
							},
							{
								"astId": 2865,
								"contract": "contracts/NFTSwap.sol:NFTSwap",
								"label": "price",
								"offset": 0,
								"slot": "1",
								"type": "t_uint256"
							}
						],
						"numberOfBytes": "64"
					},
					"t_uint256": {
						"encoding": "inplace",
						"label": "uint256",
						"numberOfBytes": "32"
					}
				}
			},
			"userdoc": {
				"kind": "user",
				"methods": {},
				"version": 1
			}
		}
	}
}